:020000040800F2
:1000000058FC0020C5020008AB6D0008B9250008A7
:10001000A96D0008F1110008419E000800000000D1
:100020000000000000000000000000002D02000899
:10003000671600080000000071020008AD92000879
:10004000DF020008DF020008DF020008DF0200080C
:10005000DF020008DF020008C1170008DF02000805
:10006000DF020008FD17000835180008DF0200084D
:10007000DF020008DF020008DF020008DF020008DC
:10008000DF020008DF020008DF020008DF020008CC
:10009000DF020008DF020008DF020008B1180008D4
:1000A000DF020008DF020008DF020008DF020008AC
:1000B000F9930008DF020008B5940008DF02000889
:1000C000DF020008DF020008DF020008DF0200088C
:1000D000DF0200087D9B0008E19B0008459C0008AA
:1000E000DF020008DF020008DF020008DF0200086C
:1000F000DF020008DF020008DF020008DF0200085C
:10010000DF020008F17A0008CD950008DF02000840
:10011000DF020008DF02000859960008DF0200082D
:10012000DF020008DF020008DF020008DF0200082B
:1001300000F002F800F06BF80AA090E8000C82448E
:100140008344AAF10107DA4501D100F060F8AFF26B
:10015000090EBAE80F0013F0010F18BFFB1A43F0A5
:1001600001031847485E0100685E01000A444FF031
:10017000000C10F8013B13F0070408BF10F8014B06
:100180001D1108BF10F8015B641E05D010F8016B4B
:10019000641E01F8016BF9D113F0080F1EBF10F8AF
:1001A000014BAD1C0C1B09D16D1E58BF01F801CBD2
:1001B000FAD505E014F8016B01F8016B6D1EF9D555
:1001C0009142D6D37047000000230024002500266A
:1001D000103A28BF78C1FBD8520728BF30C148BFAA
:1001E0000B607047642900F02581752900F0228199
:1001F000782900F08681632900F09184732900F04A
:100200009684002070471FB51FBD10B510BD00F0CB
:10021000E3FC1146FFF7F7FF0DF0A4FA00F001FD33
:1002200003B4FFF7F2FF03BC0AF003F8224B19688E
:100230000868B0E8F00F80F30988BFF36F8F4FF0C4
:10024000000080F311884EF00D0E70470000000092
:1002500006480068006880F3088862B661B6BFF39C
:100260004F8FBFF36F8F00DF00BF00BF08ED00E0CE
:10027000EFF30980BFF36F8F0F4B1A6820E9F00F7F
:10028000106008B54FF0BF0080F31188BFF34F8FA7
:10029000BFF36F8F10F0DAFB4FF0000080F311888E
:1002A000BDE8084019680868B0E8F00F80F30988D5
:1002B000BFF36F8F704700BF08020020EFF3058087
:1002C000704700000948804709480047FEE7FEE7FD
:1002D000FEE7FEE7FEE7FEE7FEE7FEE7FEE7FEE7F6
:1002E00004480549054A064B70470000C1920008C2
:1002F0003101000858F6002058FC002058F8002072
:1003000058F80020704710B54C1084EA530404D507
:100310004042C1F1000138BF491E1B4204D5524280
:10032000C3F1000338BF5B1E00F0F6FA14F0804FF3
:1003300004D04042C1F1000138BF491E14F0004F03
:1003400004D05242C3F1000338BF5B1E10BD000051
:100350000FB4044910B503AA029800F0EDFB10BCDD
:100360005DF814FB740000200FB41CB5084B06AAFE
:100370007B4469460090059800F0AFFB04460020DE
:10038000694600F0BDFB20461CBC5DF814FB000074
:100390008D07000070B5044685690068C10601D567
:1003A000302600E02026C00707D070BDD4E9012127
:1003B00030469047206A401C20626D1EF6D570BD05
:1003C00070B5044685690078C00707D170BDD4E9CF
:1003D000012120209047206A401C20626D1EF6D526
:1003E00070BD70B50C460546012A05D028788006F8
:1003F00000D5EA69002302E0012305E05B1C93427B
:1004000002D2E05C0028F9D1A869E618C01AA861F8
:10041000286A184428622846FFF7BCFF04E0D5E9A3
:10042000012114F8010B9047B442F8D32846FFF796
:10043000C7FF70BD2DE9F0410646002410687529FC
:10044000314616A510D0AFF30080002802DA4042F2
:1004500013A507E031688A0701D512A502E0490714
:1004600004D511A5012401E0AFF3008000210A2288
:1004700006F1240709E0B0FBF2FCB0FBF2F302FB4B
:100480001C00303078541846491C0028F3D123460C
:100490002A463046BDE8F04100F0C0BA0000000036
:1004A0002D0000002B00000020000000F0B40D46DD
:1004B0000188090502D5214C7C4402E01F4C7C4494
:1004C0000E34002100F1240608E002F00F071209A3
:1004D000E75D42EA03721B097754491C52EA03079D
:1004E000F3D102780023120704D5702D06D009B18C
:1004F000022311342246F0BC00F090BA01231034DC
:10050000F8E770B504460D4621461068AFF3008049
:10051000024629462046BDE870400023C6E7D21DAA
:1005200022F00703D3E90023C0E70368126843F011
:10053000200303600823C3610023B7E76A57010063
:100540002DE9F05F894604464FF0000ADFF874B1E8
:10055000FB44C0F820A02046E1688847002874D0FA
:10056000252806D0D4E901219047206A401C20624A
:10057000F1E700265F462046E168884720280546C7
:1005800007DB312D05D2781910F8200C08B106438D
:10059000F1E7B00701D526F00406C4F81CA0002737
:1005A000C4F818A02A2D09D0284609F03BFE38B31C
:1005B00004EB8708303DC8F8185019E059F8041BBF
:1005C000204604EB87029161E1688847012F0546C8
:1005D00018D1E069002820DA26F020061DE0D8F8BE
:1005E000180000EB800005EB40003038C8F8180018
:1005F0002046E1688847054609F014FE0028EED140
:10060000012F0AD02E2D08D12046E16888477F1C93
:100610000546022F46F02006C4DBA069002803DA55
:10062000404246F00106A061F00701D026F0100616
:100630006C2D0BD0682D09D04C2D39D06A2D35D0BA
:10064000742D35D07A2D33D016E038E0E1682F468E
:1006500020468847B842054609D16C2F26D04FF472
:100660008060E168064320468847054604E06C2F19
:100670001AD04FF4807006430DB3A5F1410019283C
:1006800002D8203546F400664A46294620462660B0
:100690004E46FFF7A7FD80B101280BD0F61D26F0CE
:1006A000070000F1080956E74020E4E78020D8E77A
:1006B0000020D6E706F104094DE7284652E7206AF4
:1006C000BDE8F09FFA56010030B505460B462A46B4
:1006D00013F8014B12F8010B08B1A042F8D01CB17D
:1006E000002802D06D1CF1E7284630BD40EA010326
:1006F000024630B59B0710D14FF0013400E008C22C
:1007000008C91D1B9D4315EAC41FF8D013F0FF0153
:1007100002F8011B0DD01B0AF8E711F8013B002B72
:1007200002F8013B05D011F8013B002B02F8013B18
:10073000F3D130BD10B5431C02E010F8011B71B1BC
:100740008107FAD14FF0013202C88C1A8C4314EAA7
:10075000C211F9D0C01A0A0603D0C01E10BDC01ABB
:1007600010BD0A0401D0801E10BD0902FCD0401E3D
:1007700010BD032A40F2308010F0030C00F0158009
:1007800011F8013BBCF1020F624498BF11F801CB94
:1007900000F8013B38BF11F8013BA2F1040298BFF9
:1007A00000F801CB38BF00F8013B11F0030300F063
:1007B000D581083AC0F0088051F8043B083A51F856
:1007C00004CBA0E80810F5E7121D5CBF51F8043B0C
:1007D00040F8043BAFF30080D20724BF11F8013B7F
:1007E00011F801CB48BF11F8012B24BF00F8013BE1
:1007F00000F801CB48BF00F8012B70474FF0000212
:100800000429C0F0128010F0030C00F01B80CCF122
:10081000040CBCF1020F18BF00F8012BA8BF20F890
:10082000022BA1EB0C0100F00DB85FEAC17C24BFE4
:1008300000F8012B00F8012B48BF00F8012B70478E
:100840004FF0000200B5134694469646203922BF69
:10085000A0E80C50A0E80C50B1F12001BFF4F7AFB4
:10086000090728BFA0E80C5048BF0CC05DF804EB96
:10087000890028BF40F8042B08BF704748BF20F804
:10088000022B11F0804F18BF00F8012B70470000B9
:100890004FF0013C50F8042B51F8043B9A4221D10F
:1008A000A2EB0C03934313EACC1317D150F8042B9B
:1008B00051F8043B9A4215D1A2EB0C03934313EA7F
:1008C000CC130BD150F8042B51F8043B9A4209D1B8
:1008D000A2EB0C03934313EACC13DBD04FF00000E0
:1008E000704700BFD01A01BAB1FA81F101F01801C6
:1008F00022FA01F0CB40C1F12001DBB2C0B2C01A34
:100900002CFA01F3D11A914311EAC311E6D17047D1
:10091000704770477047704753EA020C00F06980D7
:100920002DE9F04B4FF00006002B1FBFB3FA83F503
:1009300003FA05F424FA05F65E4012BF1643B2FA34
:1009400082F502FA05F4C5F120051EBF22FA05FC66
:1009500044EA0C04203556EA044C4FEA144418BF0C
:10096000641C4FF000084FF00009904271EB030C3B
:1009700039D3002919BFB1FA81F701FA07F6B0FAA5
:1009800080F700FA07F6C7F120071EBF20FA07FC20
:1009900046EA0C062037B6FBF4FCA7EB0507103F30
:1009A00007F01F0BCBF120060CFA0BFB2CFA06F616
:1009B00044BFB3460026202FA4BF5E464FF0000B75
:1009C0005BEA060C08BF4FF0010B19EB0B09ABFB00
:1009D000027C48EB0608C01B06FB02CC0BFB03CCD9
:1009E00071EB0C01C1E70B46024641464846BDE8A3
:1009F000F08B13B54FF000004FF00001AFF3008013
:100A0000BDE81C40704710B500F0DAF8006810BD72
:100A100010B5044600F0D4F8046010BD2DE9F0478D
:100A20000D4699469246044600F12408016888065E
:100A300004D5E06921F01001216000E00120A84206
:100A400001DD471B00E00027A1697A1902EB0900CC
:100A5000081AA0612078C00602D42046FFF79AFC4D
:100A6000002608E0D4E901211AF806009047206A20
:100A7000401C761C20624E45F4DB2078C0060AD567
:100A80002046FFF787FC06E0D4E90121302090479B
:100A9000206A401C2062381EA7F10107F4DC07E041
:100AA000D4E9012118F805009047206A401C206213
:100AB000281EA5F10105F3DC2046FFF781FC207814
:100AC000000602D50220BDE8F0870120FBE7000008
:100AD00001694A1C02610878704700B58FB0CDE902
:100AE00001310021059105497944CDE903101146F2
:100AF0006846FFF725FD0FB000BD0000E5FFFFFFD2
:100B00000A6802F8010B0A60704710B5436913B117
:100B1000AFF3008001E0FFF764FC012010BD127804
:100B200000F124010A7000224A700122EDE71168E9
:100B30004FF0FF32E9E70000074B70B50D467B44EC
:100B4000FFF7CBFF0446284600F03EF810B14FF007
:100B5000FF3070BD204670BDFFB7000010B5203AD1
:100B6000C0F00B80B1E81850203AA0E81850B1E866
:100B70001850A0E81850BFF4F5AF5FEA027C24BF1C
:100B8000B1E81850A0E8185044BF18C918C0BDE813
:100B900010405FEA827C24BF51F8043B40F8043BDC
:100BA00008BF7047D20728BF31F8023B48BF11F891
:100BB000012B28BF20F8023B48BF00F8012B7047EB
:100BC00000487047F4F50020007B00F0800070477B
:100BD00000487047F4F500207546FFF7F9FFAE4670
:100BE00005006946534620F00700854618B020B539
:100BF000FFF776FBBDE820404FF000064FF00007FE
:100C00004FF000084FF0000B21F00701AC46ACE8B4
:100C1000C009ACE8C009ACE8C009ACE8C0098D4621
:100C2000704710B50446AFF300802046BDE8104081
:100C3000FFF7F6BA0029816802D041F0010101E016
:100C400021F00101816070470D4910B5884202D141
:100C5000012144150AE00B49884202D10121041503
:100C600004E0094988420AD10121CC03204606F05C
:100C7000F9FC2046BDE81040002106F0F3BC10BD91
:100C80000024014000280140003C014001460020B2
:100C90008968490700D501207047C06C80B2704751
:100CA0000246002012680A4200D001207047014627
:100CB00000208968090700D50120704710B54268F7
:100CC0000E4B0C791A400B6842EA0422134343602E
:100CD00083680B4A1340D1E9024222434C7943EA2C
:100CE00044031A438260C26A097C22F47002491EDE
:100CF000C9B242EA0151C16210BD0000FFFEF0FF1F
:100D0000FDF7F1FF70B5072409290AD9C568A1F1DB
:100D10000A0606EB4606B440A543B3401D43C56032
:100D200007E0056901EB4106B440A543B3401D430C
:100D300005611F23072A09D2446B521E02EB82026F
:100D400093409C4391400C43446370BD0D2A09D2EB
:100D5000046BD21F02EB820293409C4391400C43F0
:100D6000046370BDC46A0D3A02EB820293409C4357
:100D700091400C43C46270BD816841F008018160FC
:100D800070470029816802D041F4A00101E021F4FC
:100D9000A00181607047816841F004018160704763
:100DA00030B587B0012140F2044006F04FFC01212C
:100DB000042006F04BFC00248DF817408020ADF88D
:100DC000140003201C4D8DF8160005A9284601F0DB
:100DD00069F98021284601F0ECF94FF4004006F053
:100DE00007FC164D2846FFF72FFF4FF46020CDE992
:100DF000020401208DF805408DF8100000948DF854
:100E0000044069462846FFF759FF01212846FFF7AD
:100E100011FF2846FFF7B0FF2C462046FFF747FF9B
:100E20000028FAD12046FFF7B6FF2046FFF72EFF35
:100E30000028FAD107B030BD000801400028014069
:100E40002DE9F0470024DFF878815E4E25464FF407
:100E50007A794FF4FA7A052D55D2DFE805F00315BB
:100E60002D486300641CE4B257A0FFF771FA06F046
:100E700079F9F0B9012006F057F9D0B956A0FFF77B
:100E800067FA0024012510E0641CE4B255A0FFF7C6
:100E90005FFA06F067F960B9022006F045F940B93B
:100EA0004DA0FFF755FA00240225504609F088FFAF
:100EB000D1E708F0E1F826E04EA0FFF749FA06F086
:100EC000E3F905000ED04FA0FFF742FA284608F0DC
:100ED000D3F800242546484609F072FF504609F031
:100EE0006FFFBFE74EA0FFF733FA032508E051A0DC
:100EF000FFF72EFA06F054FA78B1002508F0BCF896
:100F0000484609F05DFF504609F05AFF052CA2D172
:100F10004DA0BDE8F047FFF71BBA4FA0FFF718FA46
:100F20000425EDE751A0FFF713FA3088010429D515
:100F3000C5B25AA0FFF70CFA00206FF02F0143460C
:100F400007E01A5C00EB800001EB40001044401CFD
:100F5000C0B2A842F5D3401EDFF854C1C7B200208A
:100F6000ACF1040107E01A5CACF800200A885206D4
:100F7000FCD5401CC0B2A842F5D34EA0FFF7E8F95B
:100F800000203080002FD0D03946022006F08AFAA7
:100F900008B100258DE749A0FFF7DAF94C4806F0C3
:100FA000ABFA4C484A4900880988411A4AA0FFF721
:100FB000CFF940F2DC5009F003FF4CA0A9E7000094
:100FC000A818002072000020C7EBB0B4CAD6D6B86B
:100FD000A3A10D0A00000000D6B8CEC6D5FDC8B743
:100FE0000D0A0000D4D9B0B4D2BBB4CECAD6D6B89C
:100FF0000D0A0000B6D4B1C8C1BDB4CED6B8CEC6B5
:101000000D0A0000B6D4B1C8CAA7B0DCA3ACC7EBC8
:10101000D6D8B0B4CAD6D6B8A3A10D0A0000000035
:10102000C1BDB4CED6B8CEC6B6D4B1C8D2BBD1F944
:101030000D0A0000B2FAC9FAD2BBB8F6D6B8CEC6CD
:10104000C4A3BFE90D0A0000CFD6D4DACDCBB3F6E6
:10105000C1CBA3A10D0A0000C9FAB3C9D6B8CEC648
:10106000C4A3B0E5B3C9B9A60D0A0000C7EBCAE432
:10107000C8EBB8C3D6B8CEC6C4A3BFE9B4E6B7C5FB
:10108000B5C4CEBBD6C3A3A8B1D8D0EBD0A1D3DA18
:10109000333030A3A9A3BA0D0A0000000D0AC4FA28
:1010A000B7A2CBCDB5C4CEBBD6C3CEAA3A0D0A00EB
:1010B000043801400D0A0D0A00000000CCEDBCD33D
:1010C000D6B8CEC6B3C9B9A6A3A10D0A00000000C8
:1010D00000000020A0020020CAA3D3E0D6B8CEC6EC
:1010E000C8DDC1BF3A25640D0A000000C7EBBCCCC7
:1010F000D0F8C4E3B5C4B2D9D7F7A3A10D0A000054
:1011000038B50121482006F0A1FA4FF48074ADF8FB
:10111000004010208DF803000320064D8DF80200DA
:101120006946284600F0BEFF2146284601F03FF8F8
:1011300038BD0000000C014010B5064C0120C4F879
:10114000A0014FF4967004F5D07409F039FE002028
:10115000206010BD0080214210B509F00DFEFFF7A0
:101160001FFE08F0ADF8FFF7CBFF4FF4E134204647
:101170000EF038FB20460EF0D9FA20460EF082FB26
:1011800001F0A8FC02F0DCF800F038F906F074F980
:1011900001F092FA41F61F442146C72008F042F9B7
:1011A000214641F2873008F027FA0CF085FD0AF05D
:1011B000ADF90B4C01220BA120680AF0A9FB01221A
:1011C00009A160680AF0A4FB0848416848208847E4
:1011D000062008F029FCBDE8104008F05FBE0000C2
:1011E00074020020303A0000313A0000140100205F
:1011F000FEE770B500254FF4803405E0802006F04E
:1012000065FC08B144B101E0641EF7D240F2FF5022
:1012100006F018FC284670BD032070BD70B5124C56
:101220000546606B10F0450FFBD0042006F04EFC25
:1012300020B1042006F006FC032070BD012006F05A
:1012400045FC20B1012006F0FDFB012070BD2069A6
:10125000A84201D0102070BD40F2FF50A063606929
:1012600000F0080070BD00000080014010B50024AF
:101270004FF480310E4A09E0506B10F0450F05D055
:1012800009B1400705D5032404200CE0491EF3D220
:10129000F7E7012006F01AFC18B10124204606F0F9
:1012A000D1FB40F2FF5006F0CDFB204610BD000000
:1012B0000080014010B50A49486B10F0450FFBD083
:1012C000042006F003FC20B1042006F0BBFB032041
:1012D00010BD40F2FF5006F0B5FB002010BD00002D
:1012E000008001402DE9F0411B4C0E4607460025C9
:1012F000606B10F0450FFBD0042006F0E7FB28B12F
:10130000042006F09FFB0320BDE8F081012006F0D9
:10131000DDFB20B1012006F095FB0120F4E72069F8
:10132000B84210D140F2FF5006F08CFB626912F413
:10133000604F03D0900404D51320E5E7100C3080F3
:1013400007E0500401D51020DEE7100401D50F207E
:10135000DAE72846D8E700000080014010B50024F5
:101360004FF480310B4809E0426B12F0450F05D075
:1013700009B1500705D50324042006E0491EF3D225
:10138000F7E7500603D50024402006F05BFB20461B
:1013900010BD00000080014070B51648002441686F
:1013A00021F470414160416841F400414160124DB7
:1013B00004E0641CE4B2012009F01EFDD5F82C0104
:1013C00010B1642CF5D30DE0642C0BD2002404E0A2
:1013D000641CE4B2012009F00FFDD5F82C0118B10E
:1013E000642C04D3012070BD642CF1D3FAE70020F3
:1013F00070BD0000002001400000244238B50121EA
:10140000080206F023F94FF40064ADF80040102004
:101410008DF803000320084D8DF802006946284628
:1014200000F040FE2146284600F0C3FE00F062F8BE
:10143000FFF7B2FF38BD00000020014070B5002466
:10144000104D04E0641CE4B2012009F0D5FCD5F88D
:101450002C0108B1642CF5D3002404E0641CE4B230
:10146000012009F0C9FCD5F82C0108B9642CF5D38A
:10147000282009F0C1FCD5F82C01002800D001205B
:1014800070BD00000000244270B5002004464006F4
:10149000050EFFF7D3FF641C2843E4B2082CF6D3F3
:1014A00070BD2DE9FC410D46064600F023F8FFF71C
:1014B00073FF10B10120BDE8FC8100246F46FFF7E7
:1014C000E3FF3855641CE4B2052CF8D39DF80010F6
:1014D0009DF801009DF803300A189DF802000344AE
:1014E0001A449DF804309A4201D1297030700020CE
:1014F000E1E700000C4810B5416821F470414160FB
:10150000416841F440514160084C0020C4F8AC01EE
:10151000142004F5D67409F053FC01202060BDE8C6
:1015200010401E2009F068BC002001400000244249
:101530000029016802D041F0010102E04FF6FE727D
:10154000114001607047000001684FF6FE721140C3
:1015500001600021016041608160C1603149314A10
:101560000839904203D1486840F00F0006E02D4A48
:101570001432904204D1486840F0F000486070474F
:10158000284A2832904203D1486840F47060F5E759
:10159000244A3C32904203D1486840F47040EDE761
:1015A000204A5032904203D1486840F47020E5E769
:1015B0001C4A6432904203D1486840F47000DDE771
:1015C000184A7832904203D1486840F07060D5E7FD
:1015D000154A111F904203D1086840F00F0006E041
:1015E000114A1432904204D1086840F0F0000860BB
:1015F00070470D4A2832904203D1086840F4706069
:10160000F5E7094A3C32904203D1086840F4704043
:10161000EDE7054A50329042EAD1086840F4702064
:10162000E5E70000080002400804024030B5036806
:1016300047F6F07293430C6A8A682243D1E9044565
:101640002C4322438C692243CC6922434C6A2243B7
:101650008C6A22431A430260CA6842600A68826048
:101660004968C16030BD70472DE9F0412AA0FEF7FE
:101670006FFE2DA0FEF76CFE374D384E308801040A
:1016800025D5C4B236A0FEF763FE00206FF02F010F
:1016900007E02A5C00EB800001EB40001044401C96
:1016A000C0B2A042F5D3401EC7B2324B00201A1F71
:1016B00006E0295C198011884906FCD5401CC0B29F
:1016C000A042F6D32CA0FEF743FE00203080002F6E
:1016D000D4D00121384605F0F8FCC0B107F0CCFCAD
:1016E00040F2DC5009F06CFB254805F005FF254869
:1016F000234900880988411A23A0FEF729FE3220D9
:1017000009F05EFBBDE8F04124A0FEF721BE28A051
:10171000FEF71EFEE4E70000C9BEB3FDD6B8CEC694
:10172000A3BA0D0A00000000C7EBCAE4C8EBD2AAB6
:10173000C9BEB3FDD6B8CEC6B5C4CEBBD6C33A2853
:10174000B7B6CEA7A3BA303D3C204944203C3D3239
:101750003939290D0A000000A81800207200002065
:101760000D0AC4FAB7A2CBCDB5C4CEBBD6C3CEAAA0
:101770003A0D0A00043801400D0A0D0A000000006D
:1017800000000020A0020020CAA3CFC2D6B8CEC657
:10179000CAFDC1BFA3BA25640D0A0000C7EBBCCCCB
:1017A000D0F8C4E3B5C4B2D9D7F7A3A10D0A00009D
:1017B000C9BEB3FDD6B8CEC6B3C9B9A60D0A0000DE
:1017C00010B50A2009F0FCFA01210A4800F0E8FCF3
:1017D000012807D10848D0F8A01141B15FF00001FD
:1017E000C0F8A011BDE81040012000F083B801212D
:1017F000F6E70000000801400080214210B50A20F1
:1018000009F0DEFA0821094800F0CAFC30B908489E
:10181000D0F8941139B10021C0F89411BDE81040FE
:10182000082000F067B80121F6E700000018014029
:101830000000234210B50A2009F0C2FA102109481D
:1018400000F0AEFC30B90848D0F8941139B100214D
:10185000C0F89411BDE81040102000F04BB80121F1
:10186000F6E7000000180140008021423EB5082143
:10187000002000F003FC4FF48070002400908DF8ED
:10188000044008208DF8050001258DF806506846B3
:1018900000F046F817208DF808008DF809408DF803
:1018A0000A408DF80B5002A805F080FA3EBD0000FA
:1018B00010B54FF48074204600F022F801280DD1B5
:1018C00009490020C1F898010122C1F89821074870
:1018D000C0F88C2106480178491C01702046BDE8FB
:1018E000104000F007B80000008022420080214232
:1018F00054000020014908607047000014040140B2
:10190000064A014600201268044B0A4014331B6843
:101910000B4202D0002A00D0012070470004014091
:1019200030B51A498379026853B30B6893430B604F
:101930000A1D13680468A343136002790A441368FC
:10194000046823431360114A083213680468A343F0
:101950001360131D1C680568AC431C604479102C8F
:1019600005D021440A68006802430A6030BD11684E
:10197000046821431160196800680143196030BD93
:101980000079084401689143016030BD00040140C2
:1019900021283CD2DFE800F011131517191B1D1F79
:1019A000212325273B3B3B3B27293B3B3B2B3B3B19
:1019B0002D2F3133353B3B37390016A0704716A029
:1019C000704719A070471DA0704721A0704728A03C
:1019D00070472FA0704735A0704742A0704744A0C1
:1019E000704747A070474AA070474DA0704750A06D
:1019F000704758A070475BA070475DA0704760A01B
:101A0000704764A0704768A070476AA070476CA0D8
:101A1000704700004F4B0000CAFDBEDDB0FCBDD3D7
:101A2000CAD5B4EDCEF30000B4ABB8D0C6F7C9CF79
:101A3000C3BBD3D0CAD6D6B800000000C2BCC8EB26
:101A4000D6B8CEC6CDBCCFF1CAA7B0DC000000002E
:101A5000D6B8CEC6CDBCCFF1CCABB8C9A1A2CCAB69
:101A6000B5ADB6F8C9FAB2BBB3C9CCD8D5F700004A
:101A7000D6B8CEC6CDBCCFF1CCABCAAAA1A2CCAB56
:101A8000BAFDB6F8C9FAB2BBB3C9CCD8D5F70000D5
:101A9000D6B8CEC6CDBCCFF1CCABC2D2B6F8C9FA5F
:101AA000B2BBB3C9CCD8D5F700000000D6B8CEC6BB
:101AB000CDBCCFF1D5FDB3A3A3ACB5ABCCD8D5F796
:101AC000B5E3CCABC9D9A3A8BBF2C3E6BBFDCCAB95
:101AD000D0A1A3A9B6F8C9FAB2BBB3C9CCD8D5F77F
:101AE00000000000D6B8CEC6B2BBC6A5C5E4000053
:101AF000C3BBCBD1CBF7B5BDD6B8CEC60D0A00005F
:101B0000CCD8D5F7BACFB2A2CAA7B0DC000000008B
:101B1000C9BEB3FDC4A3B0E5CAA7B0DC0000000095
:101B2000C7E5BFD5D6B8CEC6BFE2CAA7B0DC0000B5
:101B3000BBBAB3E5C7F8C4DAC3BBD3D0D3D0D0A700
:101B4000D4ADCABCCDBCB6F8C9FAB2BBB3C9CDBC22
:101B5000CFF10000B6C1D0B420464C41534820B369
:101B6000F6B4ED00CEB4B6A8D2E5B4EDCEF30000E5
:101B7000CEDED0A7BCC4B4E6C6F7BAC500000000EC
:101B8000BCC4B4E6C6F7C9E8B6A8C4DAC8DDB4ED8B
:101B9000CEF30000BCC7CAC2B1BED2B3C2EBD6B846
:101BA000B6A8B4EDCEF30000D6B8CEC6BFE2C2FAF6
:101BB00000000000B5D8D6B7B4EDCEF300000000A9
:101BC000C4A3BFE9B7B5BBD8C8B7C8CFC2EBD3D0A1
:101BD000CEF3000008B53CA0FEF7BAFB42A0FEF72A
:101BE000B7FB0BE047A0FEF7B3FB0A2009F01EF994
:101BF0004CA0FEF7ADFB0A2009F018F9504805F09B
:101C0000CBFA0028EED14FA0FEF7A2FB1E200CF06D
:101C10008DFA05464A484FF4E1324FA10368284641
:101C2000FEF7A2FB294652A0FEF792FB642009F0C2
:101C3000FDF8504805F060FC08B107F01DFA4E4869
:101C400005F03CFB4B4CA0B107F016FA28460CF00F
:101C500063FA4A4D0026206908B3D5F81811F1B18E
:101C60000096D5F81821032300210EF083FF98B1C8
:101C700015E03222002128460CF066FA3E48218801
:101C800083780088421A3EA12846FEF76DFB29465C
:101C900037A0FEF75DFBD9E740A0FEF759FB002017
:101CA00000F05AFD0246E0680028D4D0002AD2D0C5
:101CB0000323002100960EF05DFF0028CBD137A052
:101CC000FEF746FBC7E7000041533630382046692F
:101CD0006E6765727072696E74206D6F64756C6585
:101CE00020746573740D0A00436F6E6E6563742013
:101CF000776974682041533630382E2E2E2E2E0DE3
:101D00000A00000043616E6E6F7420636F6E6E6533
:101D100063742077697468204153363038210D0A86
:101D20000000000054727920746F20636F6E6E653E
:101D3000637420616761696E2E2E2E2E0D0A0000DD
:101D40003C000020436F6E6E6563742053756363BF
:101D5000657373210D0A00004261756472617465D8
:101D60003A2564202020416464723A25780A0000F4
:101D700025730A0000000020A0020020000021427C
:101D800052656D61696E4E756D3A25642020202084
:101D90004C6576656C3A2564200A0000C8CECEF109
:101DA000CDA8D6AAB7A2CBCDCAA7B0DC0D0A000039
:101DB0001CB54FF0FF340021224601AB08460094C9
:101DC0000EF052FF0128F6D10198C0B2012804D0CC
:101DD0000228F0D1FFF748FCEDE7FFF731F8EAE71A
:101DE0008000A0F1C0400029016802D041F001014B
:101DF00001E0024A1140016070470000FEFF0F0041
:101E000010B5D0E901121143D0E903231A4311435D
:101E10004269114382691143C2691143026A114345
:101E2000426A1143826A1143C26A1143026B114331
:101E300002689200A2F1C04211608168082907D1AE
:101E400001688900A1F1C0410A6842F040020A60BD
:101E5000416BD1E9002342EA03128B688C891B0293
:101E600043EA04431A430B8A42EA03520B7D896911
:101E700042EA03620A4301688900A1F1C0414A6055
:101E8000C16AB1F5804F08D000686FF070418000E2
:101E9000A0F1C040C0F8041110BD816BD1E900234E
:101EA00042EA03128B680C8A1B0243EA04531A436A
:101EB0000B7D896942EA036200680A438000A0F151
:101EC000C040C0F8042110BD70B5104D288800280E
:101ED0001AD00F490FA0FEF73BFA0D480024124E0E
:101EE000807B592802D04E2803D007E009F0E6FA9B
:101EF00004E0FFF721F90DA0FEF72AFAC8210448F3
:101F0000FEF77CFC34602C8070BD0000780000205F
:101F1000701900205553415254335F52585F425557
:101F2000463A25730D0A00007C0000206661636557
:101F3000206661696C0D0A00FFF7C6FF05200EF0F0
:101F4000EFFCF9E72DE9FC5F0025494C00954FF4C3
:101F5000806801954027C4F81080C4E902750E46D8
:101F60004FF0080B1021C4E900B1A946204605F046
:101F7000DDFD1020FFF752F900284DD13D48BA464B
:101F80004F460089000420603720C4E9010AC4E9F3
:101F90000398204605F0CAFD3720FFF73FF90028D7
:101FA0003AD1411E04F11400C0E9001B30218160C8
:101FB0000221C0E903170121416105F05FFD3320D3
:101FC000C4F808A0C4E90070C4E90378204605F00D
:101FD000ADFD3320FFF722F904001DD1264F4FF449
:101FE000001AE94640F22A68786B10EA080F0BD114
:101FF000504605F06BFD0028F6D005F091FD49F83C
:1020000025006D1C022DEFD3082005F05FFD28B1DF
:10201000082005F017FD0420BDE8FC9F022005F014
:1020200055FD20B1022005F00DFD0220F4E720202F
:1020300005F04CFD20B1202005F004FD0620EBE763
:102040004FF40075284605F041FD20B1284605F003
:10205000F9FC0720E0E740F2FF5005F0F3FC0098A0
:1020600000BA7060019800BA30602046D4E70000E2
:10207000000600205C0000200080014010B58A07A7
:1020800021F003040649130F21440F228C689A4063
:1020900094438C608A68984002438A6010BD0000B7
:1020A00000000140F0B5CA78002502F00F03D20607
:1020B00001D58A7813430A784FF00F0E12F0FF0F04
:1020C0004FF001021CD004680F8802FA05F6374071
:1020D000B74211D14FEA850C0EFA0CF724EA070734
:1020E00003FA0CF43C43CF78282F02D0482F02D0BB
:1020F00002E0466100E006616D1C082DE4D3046037
:102100000C88FF2C1ED944685FF0000606F1080712
:1021100002FA07F50F882F40AF420FD14FEA860C25
:102120000EFA0CF7BC4303FA0CF73C43CF78282F88
:1021300000D14561CF78482F00D10561761C082E6B
:10214000E4D34460F0BD0000F0B5144C002801DA7F
:10215000E36900E06368420D120185B2C0F30157E4
:102160009540C0F30346032F05D0C2020AD50322CF
:10217000B240934307E023F07062636823F070631A
:10218000636002E0AB4343F0706201B12A43002870
:1021900001DAE261F0BD6260F0BD000000000140C4
:1021A0000246002092680A4200D001207047416137
:1021B00070470161704700002DE9FF4F83B004466E
:1021C0003E20CDE90040DDF844B000274FF0800903
:1021D0003148109A07EB071110F81130127893422A
:1021E00040D100EB410A10989AF8011040788142E2
:1021F00038D1049804990F3083B204F10F0082B2F1
:10220000204600F09DFD002600250AEB060800BFD1
:10221000BBF1000F13D021490598088098F80210EF
:1022200029FA05F0014203D02046049900F024FC6D
:10223000641C0098A4B2201A102826D00AE098F84E
:10224000021029FA05F0014201D0059800E0069835
:1022500000F084FE6D1CEDB2082DD9D3761CF6B2C9
:10226000202ED1D37F1C0198BFB28742B0D30C4837
:102270004188008807B0491EBDE8F04F401E8BB270
:1022800082B20021084600F05BBD0498009C401C0F
:1022900080B20490E2E700007E2D01084400002097
:1022A000CC0500202DE9FF4F83B004460720CDE97F
:1022B0000040DDF844B000274FF0800907EB8700AD
:1022C00000EB47113048109A10F811301278934201
:1022D00040D100EB410A10989AF8011040788142F1
:1022E00038D104980499173083B204F1170082B2F0
:1022F000204600F025FD002600250AEB060800BF59
:10230000BBF1000F13D021490598088098F80210FE
:1023100029FA05F0014203D02046049900F0ACFBF5
:10232000641C0098A4B2201A182826D00AE098F855
:10233000021029FA05F0014201D0059800E0069844
:1023400000F00CFE6D1CEDB2082DD9D3761CF6B250
:10235000482ED1D37F1C0198BFB28742AED30C4820
:102360004188008807B0491EBDE8F04F401E8BB27F
:1023700082B20021084600F0E3BC0498009C401C97
:1023800080B20490E2E70000BA3501084400002062
:10239000CC0500202DE9FF4F83B004460420CDE991
:1023A0000040DDF844B000274FF080093148109A12
:1023B00007EB871110F811301278934240D100EBEF
:1023C000410A10989AF801104078814238D1049857
:1023D00004991F3083B204F11F0082B2204600F03E
:1023E000AFFC002600250AEB060800BFBBF1000F7A
:1023F00013D021490598088098F8021029FA05F0B1
:10240000014203D02046049900F036FB641C00987A
:10241000A4B2201A202826D00AE098F8021029FA3F
:1024200005F0014201D0059800E0069800F096FD05
:102430006D1CEDB2082DD9D3761CF6B2802ED1D307
:102440007F1C0198BFB28742B0D30C4841880088F6
:1024500007B0491EBDE8F04F401E8BB282B200218A
:10246000084600F06DBC0498009C401C80B20490AB
:10247000E2E70000C037010844000020CC0500203E
:1024800010B50B4C0146072301222046FEF73AFC0B
:1024900001212046FEF775FC02212046FEF700FCD4
:1024A0000028F9D02046BDE81040FEF7F6BB00003A
:1024B000002801402DE9F04100250E4607462C4634
:1024C00008E03846FFF7DCFF0544052008F078FCFB
:1024D000641CE4B2B442F4D3B5FBF6F080B2BDE8BC
:1024E000F081000030B403460C46500700D00120B4
:1024F00000EBD2005043C1B218785B78812809D331
:10250000402B07D3FF2B05D0FF2803D07F2B0DD204
:10251000403B0CE00020024604E000BF401C04F8F1
:10252000012BC0B28842F9D330BC7047413B81389F
:10253000C0B2C0EB4015DBB205EB801003EB4000EE
:1025400048430B4B0C2A0CD0102A0DD0182AEBD183
:10255000D3F8192010440A460146204630BC07F043
:10256000C9BCD3F80920F5E7D3F81120F2E7000041
:1025700088B000202DE9FE431F46DDE90A4690465B
:10258000894620460C9DFEF7D5F80A4980B24042A4
:102590000988CDE9004601EBC00000EBD070C0F324
:1025A0004F003B4642464946029506F00DFEBDE807
:1025B000FE830000CC050020FEE772B6704762B6CD
:1025C0007047000038B505461C4900200090098975
:1025D0000A041B490A600D224A604022C1E9022018
:1025E00010010861084605F0A1FA164C606B0090D6
:1025F00010F0450FFAD0012005F068FA20B1012053
:1026000005F020FA012038BD042005F05FFA20B162
:10261000042005F017FA032038BD20690D2801D0E9
:10262000102038BD40F2FF5005F00CFA60690090B0
:10263000C0F343202870002038BD00005C0000205B
:1026400000060020008001407CB50546EF208DF893
:10265000000001208DF801001448154C0168080E97
:102660008DF80200080C8DF80300080A8DF80400AC
:1026700007208DF805108DF8060000268DF80760FC
:1026800026800CE0012008F09BFB2088000406D582
:10269000268069460748FEF717F8002804D16D1E0A
:1026A0002D042D0CEED100207CBD00003C0000204C
:1026B0003A000020AC02002038B501214FF4E2704E
:1026C00004F0C4FF01211F48FFF73EFD1020ADF8C4
:1026D00000001D4D48248DF8034069462846FFF749
:1026E000E1FC0820ADF800008DF80340694628465B
:1026F000FFF7D8FC8020ADF80000144D8DF80340A2
:1027000069462846FFF7CEFCA814ADF800008DF806
:10271000034069462846FFF7C5FC2020ADF80000BD
:102720008DF8034069460A48FFF7BCFC0120ADF86C
:10273000000028208DF8030069460648FFF7B2FC28
:1027400038BD00000002300000180140001C0140AC
:1027500000200140000801402DE9F047434CDFF81C
:102760001081DFF810A1444E444D01274FF48059E9
:1027700008B1277001E02078F0B110213046FFF752
:102780000FFD00B308213046FFF70AFDD8B1202124
:102790004046FFF705FDB0B180212846FFF700FD58
:1027A00088B149462846FFF7FBFC60B1012150463D
:1027B000FFF7F6FC012806D010213046FFF7F0FCA9
:1027C000012832D04FE00A2008F0FAFA00202070E9
:1027D00010213046FFF7E4FCD0B108213046FFF766
:1027E000DFFCC0B120214046FFF7DAFCA8B1802110
:1027F0002846FFF7D5FC90B149462846FFF7D0FCA4
:1028000078B101215046FFF7CBFC01280BD02AE01C
:102810000120BDE8F0870220FBE70320F9E7042050
:10282000F7E70520F5E70620F3E708213046FFF734
:10283000B7FC012817D120214046FFF7B1FC012841
:1028400011D180212846FFF7ABFC01280BD1494666
:102850002846FFF7A5FC012805D101215046FFF7C6
:102860009FFC00B927700020D3E70000380000204B
:10287000002001400008014000180140001C0140F8
:1028800086B04FF6FF7000F0C9F8012610252EA083
:102890008DE861001F230024DF023A4617212046FD
:1028A000FFF768FE0BE02BA08DE861001F233A467E
:1028B00017210020FFF75EFEC82008F0B7FAFEF7E8
:1028C0009DFD0028EFD126A08DE861004FF4FC6744
:1028D0001F233A4639210020FFF74CFE23A08DE844
:1028E00061001F233A464A210020FFF743FE22A041
:1028F0008DE861001F233A465B210020FFF73AFE76
:102900005FF00A06B4FBF6F006FB104098B904A984
:1029100003A8FEF7C6FD022300959DF80C204A216E
:10292000462000F0BDFA022300959DF810205B219F
:10293000462000F0B5FA0A2008F078FA641CE4B2E8
:10294000142CDFD10024DDE7444854313154455381
:10295000540000004448543131204572726F7200B7
:102960004448543131204F4B0000000054656D70D5
:102970003A2020202043000048756D693A2020202D
:10298000202500000EB54FF6FF7000F047F8012635
:1029900010241BA08DE851001F231A466C21002033
:1029A000FFF7E8FD19A08DE851001F231A467D218D
:1029B0000020FFF7DFFD28460EF08EFD4FF0663257
:1029C000154B0EF0D9FD6FF00B020FF03AFC0EF034
:1029D000C9FA0FF043FA054604F06AF90FF03EFA1F
:1029E000024602236C214620009400F059FA2A4640
:1029F00002237D214620009400F052FAECE700000B
:102A000050504D3A2020202000000000766F6C3A94
:102A1000202020200000000066660A402DE9F047D3
:102A2000134C814600216088401E83B22088401EDE
:102A300082B2084600F084F90E4808270760A0F12A
:102A400004080221C8F80010002609E0002503E070
:102A5000484600F083FA6D1C2088A842F8D8761CFE
:102A60006088B042F2D8C8F80070BDE8F087000076
:102A7000CC050020141C014010B500F05DF903489E
:102A80000088BDE8104000F069BA00004400002052
:102A900038B50121802004F0D9FD3F20ADF80000B9
:102AA00003248DF802401020094D8DF8030069467B
:102AB0002846FFF7F7FA6815ADF8000048208DF8B2
:102AC00003008DF8024069462846FFF7EBFA38BD4F
:102AD000001C014010B5FFF7DBFF00F01BF91120CF
:102AE00000F02EFA782008F06BF9B12000F028FAF7
:102AF000012000F017FA2C2000F014FA2D2000F02D
:102B000011FAB22000F01CFA012000F00BFA2C2080
:102B100000F008FA2D2000F005FAB32000F010FABA
:102B2000012000F0FFF92C2000F0FCF92D2000F02E
:102B3000F9F9012000F0F6F92C2000F0F3F92D202E
:102B400000F0F0F9B42000F0FBF9072000F0EAF9FA
:102B5000C02000F0F5F9A22000F0E4F9022000F016
:102B6000E1F9842000F0DEF9C12000F0E9F9C52088
:102B700000F0D8F9C22000F0E3F90A2000F0D2F901
:102B8000002000F0CFF9C32000F0DAF98A2000F02D
:102B9000C9F92A2000F0C6F9C42000F0D1F98A2032
:102BA00000F0C0F9EE2000F0BDF9C52000F0C8F932
:102BB0000E2000F0B7F9362000F0C2F9C02000F076
:102BC000B1F9E02000F0BCF90F2000F0ABF91A20B9
:102BD00000F0A8F90F2000F0A5F9182000F0A2F9E4
:102BE0002F2000F09FF9282000F09CF9202000F011
:102BF00099F9222000F096F91F2000F093F91B208C
:102C000000F090F9232000F08DF9372000F08AF9C8
:102C1000002000F087F9072000F084F9022000F07E
:102C200081F9102000F07EF9E12000F089F90F20F1
:102C300000F078F91B2000F075F90F2000F072F910
:102C4000172000F06FF9332000F06CF92C2000F011
:102C500069F9292000F066F92E2000F063F9302090
:102C600000F060F9302000F05DF9392000F05AF9E9
:102C70003F2000F057F9002000F054F9072000F041
:102C800051F9032000F04EF9102000F04BF92A20F2
:102C900000F056F9002000F045F9002000F042F95C
:102CA000002000F03FF97F2000F03CF92B2000F0DD
:102CB00047F9002000F036F9002000F033F9002039
:102CC00000F030F99F2000F02DF9F02000F038F9E5
:102CD000012000F027F9F62000F032F9002000F082
:102CE00021F93A2000F02CF9052000F01BF92920E9
:102CF00000F026F9002000F055F905490120C1F83F
:102D00008001BDE810404FF6FF70FFF787BE00005E
:102D10000080234210B5074804240460642008F0B2
:102D20004FF80448001F0460BDE81040322008F04E
:102D300047B80000141C01400B460246AFF3008068
:102D40002DE9F041134C0746984615460E46A07AE9
:102D500000F0F6F8002000F0E5F8F8B200F0E2F834
:102D6000002000F0DFF8E8B200F0DCF8207B00F093
:102D7000E7F8002000F0D6F8F0B200F0D3F8002019
:102D800000F0D0F808F0FF0000F0CCF8BDE8F0410A
:102D900000F0F8B8CC0500202DE9FF4F81B08A463D
:102DA0000EA9DFF8EC9091E83100203800F0FF0820
:102DB0000AEB0400401E83B20198B9F800B000EBA2
:102DC0005400401E82B251460198FFF7B9FF002D12
:102DD0004FF0000549D12F4808EB480100EB810A6C
:102DE00000F2744000EB081817E00C2C03D018F820
:102DF000057000260CE01AF80570FAE7F80701D014
:102E0000039800E0049800F0A9F87F08761CF6B259
:102E1000B6EB540FF2D36D1CEDB2A542E5D326E01C
:102E20000C2C08D01C4901EB08100026475D0AEB6A
:102E30000500009014E0174808EB480100EB810002
:102E4000F3E70398A9F80000F80706D0009881B2CC
:102E50000198304480B2FFF70FFE7F08761CF6B26F
:102E6000B6EB540FEDD36D1CEDB2A542D8D30B4891
:102E7000A9F800B04188008805B0491EBDE8F04FB0
:102E8000401E8BB282B200210846FFF759BF0000F6
:102E9000440000201A2301088E270108CC050020D9
:102EA0002DE9FF4F83B00026DDF840801D463446F3
:102EB000B2464FEA5807DFF86490DFF864B028E0C4
:102EC000281B401EC1B20A200BF045F90599B1FB41
:102ED000F0F00A21B0FBF1F201FB120026B9691EE5
:102EE0008C4201DA28B101263030C0B28DE80105EC
:102EF00002E020228DE804050398B9F8003007FBB2
:102F0000040080B2BBF800200499FFF745FF641C61
:102F1000E4B2AC42D4D307B0BDE8F08F4600002045
:102F20004400002070B5054908240C60034D0221BF
:102F30002D1F296006F000F82C6070BD141C0140A4
:102F400010B5054908240C6002220A6005F0F4FF60
:102F50000148001F046010BD141C014070B50446F8
:102F6000074808250560064E0220361F3060200AFB
:102F700005F0E2FFE0B205F0DFFF356070BD000054
:102F8000141C01400148007AFFF7DABFCC0500208D
:102F900010B50C46FFF7D4FFE0B2BDE81040FFF7D4
:102FA000C1BF000011492A224A812B228A812C228A
:102FB0000A818222A12358B101280DD002280FD006
:102FC000032811D10B804A8060213620FFF7E0BF33
:102FD0000A804B80C021F8E70B804A80A021F4E7EB
:102FE0000A804B800021F0E770470000CC050020EC
:102FF000C0F34511C20AC00200EB4110104480B278
:10300000704700002DE9F043174C814600252088C9
:1030100066884643A088A0F5D041043902D1A07942
:10302000012807D00021084603F02CFA03F020FC09
:103030000E4814E00020A0712A2767814FF02B086A
:10304000A4F80C80014603F01DFA0120A071A4F839
:103050000A80A781EAE700BFA0F800906D1CB54286
:10306000FAD3BDE8F0830000DA0500200008006C08
:103070002DE9F04F4A492A242B25898845F2105A18
:103080004FF4305B4FF4285E4FF448764FF0F00C6D
:1030900049F241394FF4A07345F210374FF4F07202
:1030A00080B13F484FF00108494580F80680038011
:1030B000A0F802C001D0B9423ED12C26068144813D
:1030C000858157E036484FF00008494580F8068072
:1030D000A0F800C0438006D0A1F5D04CBCF1040C90
:1030E00001D0B9420CD12C2606814481A1F5D044EF
:1030F0008581043C01D0B94244D10380428041E043
:10310000514507D1A0F808B0A0F80AE04FF42C51BF
:1031100081810EE0A1F5C853633B06D022210181D5
:1031200020214181212181812CE02C2101814581B7
:1031300084810280468025E0A1F5D04CBCF1040CCE
:1031400009D051450BD1A0F808B0A0F80AE04FF41F
:103150002C54848121E02C260681458109E0A1F5CB
:10316000C85CBCF1630C12D0222404812124448168
:1031700020248481A1F5D044043C01D0B94201D17E
:1031800002804380BDE8F04F002003F0A7B84FF065
:103190002C0CA0F808C04481858106804280E9E7B4
:1031A000DA0500202DE9F04FDFF800810C460146DA
:1031B000060A40469346B8F80450DFF8F4A0828926
:1031C000230A4089A5F513470AF10209413F19D0A6
:1031D000A5F5A647103F15D0A5F5AA47103F15D075
:1031E0004746A5F5C85CBE793F887F1A7F1EBCF1B3
:1031F000630C20D0A5F5D04CBCF1040C33D0012ECB
:1032000043D043E05546AAF8000033E0AAF8000096
:10321000A9F80060401CAAF80000C8B2A9F8000094
:10322000AAF80020A9F80030521CAAF80020E0B249
:10323000A9F8000031E006B9B9B2AAF800000D0AF9
:103240004846A9F80050CFB2A9F80070A9F800507C
:10325000C9B2A9F80010AAF80020A9F80030E1B21C
:10326000A9F800100DE0012E00D1B9B25546AAF818
:1032700000000E0A4846A9F80060C9B2A9F800107B
:103280002A800380E1B2018007E0B9B203F0FAFAC4
:10329000B8F80C00214603F0F5FAB8F80810AAF8BF
:1032A0000010A9F800B0BDE8F08F0000DA0500209A
:1032B000FE07006C2DE9F8431F4C1E468046A3888C
:1032C000089FA3F5D040043802D1A079012807D087
:1032D000A2EB0800401C84B20D46DFF8609028E0A5
:1032E00025880846A91AA5EB08030025A5713246D2
:1032F0002A2565812B26491E5B1EA68189B29BB2B9
:103300000097FFF7D7FF0120A0716681A581BDE876
:10331000F8832946404603F0B5F803F0A9FA0020E7
:10332000494602E00F80401C80B2A042FAD36D1CD7
:10333000ADB2B542EDD9EAE7DA0500200008006C2D
:103340002DE9F04F01210E02A1B0304604F05AF9E8
:1033500001214FF4B47004F079F94FF00108ADF891
:10336000008010258DF8035003208DF80200474699
:103370006946FE48FEF796FE4CF23370ADF8000049
:1033800018248DF8034003208DF802006946F848A0
:10339000FEF788FE4FF68070ADF800008DF8034010
:1033A00003208DF802006946F248FEF77BFE41F2E9
:1033B0000100ADF800008DF8034003208DF80200F5
:1033C0006946ED48FEF76EFE00200F21CDE91101A0
:1033D000139014900321CDE91801159016901790C1
:1033E0001A901B901C9006211D90CDE90110CDE98B
:1033F000030505900790069029020890CDE9090180
:103400008900CDE90B010D9010A80E9017A8CDE909
:103410000F0701A8FEF7F4FC01210620FEF7E0FCEF
:10342000322007F0CDFC002002F02EFFD34AD44D0D
:1034300049F2413AAC1C908046F6040B45F210511B
:103440004FF6FF79FF2804D3484502D0B0F5134F5B
:103450006FD1D320288002F087FE908002F084FE96
:10346000908002F081FE09EA00204F46908002F031
:103470007BFE93881843908050455AD0BF20288007
:1034800002F072FE908002F06FFE908002F06CFEFF
:10349000908002F069FE07EA0020908002F064FE4E
:1034A000938818439080584543D0D420288002F058
:1034B0005BFE908002F058FE908002F055FE07EA15
:1034C0000020908002F050FE93881843A0F5A64398
:1034D0009080103B2DD04FF45A40288002F044FEDB
:1034E00090804FF45B40288002F03EFE07EA002007
:1034F00090804FF45C40288002F036FE9388184399
:103500009080B0F5004F7DD0884212D0A120288055
:1035100002F02AFE908002F027FE07EA0020908049
:1035200002F022FE93881843A0F5AE439080613BE1
:1035300069D080B2504567D1CF20288000202080FC
:10354000C120208030202080ED2028806420208031
:10355000032020801220208081202080E8202880E5
:1035600085202080102020807A202080CB20288079
:10357000392020802C2020800020208034202080B2
:1035800002202080F720288020202080EA20288028
:10359000002020802080C02028801B202080C12087
:1035A000288001202080C520288030202080208095
:1035B000C7202880B72020803620288048202080FF
:1035C0003A20288055202080B120288000202080AB
:1035D0001A202080B62028800A202080A220208067
:1035E000F2202880002020802620288001202080B2
:1035F000E02028800F2020802A2020802820208082
:10360000082002E04DE047E04DE020800E202080C1
:103610000820208054202080A92020804320208062
:103620000A2020800F202080002020802080208001
:103630002080E12028800020208015202080172075
:1036400020800720208011202080062020802B2031
:103650002080562020803C202080052020801020C3
:1036600020800F2020803F20208020800F2020807D
:103670002B202880002020802080012020803F20D7
:1036800020802A2028800020208020802080EF2099
:1036900020801120288081E041F66310908002F0A4
:1036A000DBBC918086E058457DD111202880142014
:1036B00007F086FBD0202880072020804220208031
:1036C0001D202080D1202880002020801A202080EA
:1036D00009202080D22028800120208022202080E4
:1036E000C0202880102020803B20208000202080C7
:1036F0000220208011202080C520288003202080E7
:10370000C8202880002020802520208021202080A3
:1037100005202080002020800A2020806520208035
:103720002520208077202080502020800F2020809E
:1037300000202080F820288001202080FE20288082
:103740000020208002202080202028803620288011
:10375000082020803A202880552020802B20288097
:10376000002020802080012020800CE0000C0140FF
:10377000001401400018014000200140DA0500203B
:10378000FE07006C0FE03F2020802A2028800020C8
:103790002080208001202080DF202080782007F0FA
:1037A0000FFB2920FDE3A0F5A642103A7DD0884208
:1037B00041F02A844FF470435521184603F062F813
:1037C0004FF20104AA21204603F05CF8661C522146
:1037D000304603F057F8A71C0821384603F052F88A
:1037E0004FF2040A0121504603F04CF80D214FF42A
:1037F000304003F047F80D214BF2010003F042F88E
:103800000D214BF2020003F03DF84FF4364B34210A
:10381000584603F037F834214BF2016003F032F8D8
:1038200034214BF2026003F02DF80D214FF43140AA
:1038300003F028F80D214BF2011003F023F80D21BD
:103840004BF2021003F01EF834214FF4374003F01E
:1038500019F834214BF2017003F014F834214BF2C3
:10386000027003F00FF800214FF4324003F00AF821
:1038700000214BF2012003F005F800214BF2022059
:1038800003F000F824214FF4384002F0FBFF24211C
:103890004BF6010002F0F6FF24214BF6020002F085
:1038A000F1FF01214FF43F4000E0FCE302F0EAFFAA
:1038B0000F214FF4334002F0E5FF0F214BF20130AE
:1038C00002F0E0FF0F214BF2023002F0DBFF342167
:1038D0004FF4394002F0D6FF34214BF6011002F0CC
:1038E000D1FF34214BF6021002F0CCFF08214FF437
:1038F000354002F0C7FF08214BF2015002F0C2FF31
:1039000008214BF2025002F0BDFF03214FF4424068
:1039100002F0B8FF24214FF43A4002F0B3FF242113
:103920004BF6012002F0AEFF24214BF6022002F0FC
:10393000A9FF00214FF43C4002F0A4FF78214BF690
:10394000014002F09FFF00214BF6024002F09AFF77
:1039500000214FF43D4002F095FF78214BF60150D5
:1039600002F090FF00214BF6025002F08BFF002185
:103970004FF43E4002F086FF64214BF6016002F0F6
:1039800081FF00214FF4514002F07CFF33214DF2C2
:10399000011002F077FF00214DF2021002F072FFD9
:1039A00034214DF2031002F06DFF00214DF204109E
:1039B00002F068FF3A214DF2051002F063FF00218A
:1039C0004DF2061002F05EFF4A214DF2071002F0A0
:1039D00059FF00214DF2081002F054FF5C214DF216
:1039E000091002F04FFF00214DF20A1002F04AFFC9
:1039F00081214DF20B1002F045FF00214DF20C1019
:103A000002F040FFA6214DF20D1002F03BFF002115
:103A10004DF20E1002F036FFE5214DF20F1002F0CC
:103A200031FF01214DF2101002F02CFF13214DF255
:103A3000111002F027FF01214DF2121002F022FFB7
:103A400054214DF2131002F01DFF01214DF214100C
:103A500002F018FF82214DF2151002F013FF012130
:103A60004DF2161002F00EFFCA214DF2171002F0AF
:103A700009FF02214DF2181002F004FF00214DF25F
:103A8000191002F0FFFE02214DF21A1002F0FAFEA8
:103A900001214DF21B1002F0F5FE02214DF21C1027
:103AA00002F0F0FE34214DF21D1002F0EBFE022177
:103AB0004DF21E1002F0E6FE67214DF21F1002F0DB
:103AC000E1FE02214DF2201002F0DCFE84214DF2D5
:103AD000211002F0D7FE02214DF2221002F0D2FE98
:103AE000A4214DF2231002F0CDFE02214DF224104C
:103AF00002F0C8FEB7214DF2251002F0C3FE0221EC
:103B00004DF2261002F0BEFECF214DF2271002F03A
:103B1000B9FE02214DF2281002F0B4FEDE214DF272
:103B2000291002F0AFFE02214DF22A1002F0AAFE87
:103B3000F2214DF22B1002F0A5FE02214DF22C10C5
:103B400002F0A0FEFE214DF22D1002F09BFE03219B
:103B50004DF22E1002F096FE10214DF22F1002F0C1
:103B600091FE03214DF2301002F08CFE33214DF214
:103B7000311002F087FE03214DF2321002F082FE76
:103B80006D214DF2331002F07DFE00214FF45240C2
:103B900002F078FE33214DF2012002F073FE002185
:103BA0004DF2022002F06EFE34214DF2032002F0AD
:103BB00069FE00214DF2042002F064FE3A214DF22C
:103BC000052002F05FFE00214DF2062002F05AFEB1
:103BD0004A214DF2072002F055FE00214DF2082047
:103BE00002F050FE5C214DF2092002F04BFE002154
:103BF0004DF20A2002F046FE81214DF20B2002F028
:103C000041FE00214DF20C2002F03CFEA6214DF2B7
:103C10000D2002F037FE00214DF20E2002F032FEA0
:103C2000E5214DF20F2002F02DFE01214DF2102072
:103C300002F028FE13214DF2112002F023FE012193
:103C40004DF2122002F01EFE54214DF2132002F01C
:103C500019FE01214DF2142002F014FE82214DF2D2
:103C6000152002F00FFE01214DF2162002F00AFE8F
:103C7000CA214DF2172002F005FE02214DF2182054
:103C800002F000FE00214DF2192002F0FBFD02219E
:103C90004DF21A2002F0F6FD01214DF21B2002F038
:103CA000F1FD02214DF21C2002F0ECFD34214DF219
:103CB0001D2002F0E7FD02214DF21E2002F0E2FD80
:103CC00067214DF21F2002F0DDFD02214DF2202080
:103CD00002F0D8FD84214DF2212002F0D3FD022113
:103CE0004DF2222002F0CEFDA4214DF2232002F05D
:103CF000C9FD02214DF2242002F0C4FDB7214DF28E
:103D0000252002F0BFFD02214DF2262002F0BAFD6F
:103D1000CF214DF2272002F0B5FD02214DF22820DF
:103D200002F0B0FDDE214DF2292002F0ABFD0221B0
:103D30004DF22A2002F0A6FDF2214DF22B2002F0D6
:103D4000A1FD02214DF22C2002F09CFDFE214DF23E
:103D50002D2002F097FD03214DF22E2002F092FD5E
:103D600010214DF22F2002F08DFD03214DF2302065
:103D700002F088FD33214DF2312002F083FD032152
:103D80004DF2322002F07EFD6D214DF2332002F023
:103D900079FD00214FF4534002F074FD33214DF2C0
:103DA000013002F06FFD00214DF2023002F06AFD99
:103DB00034214DF2033002F065FD00214DF2043054
:103DC00002F060FD3A214DF2053002F05BFD00216A
:103DD0004DF2063002F056FD4A214DF2073002F056
:103DE00051FD00214DF2083002F04CFD5C214DF2F6
:103DF000093002F047FD00214DF20A3002F042FD89
:103E000081214DF20B3002F03DFD00214DF20C30CE
:103E100002F038FDA6214DF20D3002F033FD0021F5
:103E20004DF20E3002F02EFDE5214DF20F3002F082
:103E300029FD01214DF2103002F024FD13214DF235
:103E4000113002F01FFD01214DF2123002F01AFD77
:103E500054214DF2133002F015FD01214DF21430C2
:103E600002F010FD82214DF2153002F00BFD012110
:103E70004DF2163002F006FDCA214DF2173002F065
:103E800001FD02214DF2183002F0FCFC00214DF240
:103E9000193002F0F7FC02214DF21A3002F0F2FC68
:103EA00001214DF21B3002F0EDFC02214DF21C30DD
:103EB00002F0E8FC34214DF21D3002F0E3FC022157
:103EC0004DF21E3002F0DEFC67214DF21F3002F091
:103ED000D9FC02214DF2203002F0D4FC84214DF2B5
:103EE000213002F0CFFC02214DF2223002F0CAFC58
:103EF000A4214DF2233002F0C5FC02214DF2243002
:103F000002F0C0FCB7214DF2253002F0BBFC0221CB
:103F10004DF2263002F0B6FCCF214DF2273002F0F0
:103F2000B1FC02214DF2283002F0ACFCDE214DF252
:103F3000293002F0A7FC02214DF22A3002F0A2FC47
:103F4000F2214DF22B3002F09DFC02214DF22C307B
:103F500002F098FCFE214DF22D3002F093FC03217B
:103F60004DF22E3002F08EFC10214DF22F3002F077
:103F700089FC03214DF2303002F084FC33214DF2F4
:103F8000313002F07FFC03214DF2323002F07AFC36
:103F90006D214DF2333002F075FC00214FF4544096
:103FA00000E084E302F06EFC33214DF2014002F0A8
:103FB00069FC00214DF2024002F064FC34214DF214
:103FC000034002F05FFC00214DF2044002F05AFC75
:103FD0003A214DF2054002F055FC00214DF2064019
:103FE00002F050FC4A214DF2074002F04BFC002148
:103FF0004DF2084002F046FC5C214DF2094002F00F
:1040000041FC00214DF20A4002F03CFC81214DF2BE
:104010000B4002F037FC00214DF20C4002F032FC64
:10402000A6214DF20D4002F02DFC00214DF20E4074
:1040300002F028FCE5214DF20F4002F023FC0121A3
:104040004DF2104002F01EFC13214DF2114002F01F
:1040500019FC01214DF2124002F014FC54214DF2E2
:10406000134002F00FFC01214DF2144002F00AFC53
:1040700082214DF2154002F005FC01214DF216405F
:1040800002F000FCCA214DF2174002F0FBFB0221B6
:104090004DF2184002F0F6FB00214DF2194002F0FB
:1040A000F1FB022100E005E34DF21A4002F0EAFBC9
:1040B00001214DF21B4002F0E5FB02214DF21C40B4
:1040C00002F0E0FB34214DF21D4002F0DBFB022147
:1040D0004DF21E4002F0D6FB67214DF21F4002F068
:1040E000D1FB02214DF2204002F0CCFB84214DF2A5
:1040F000214002F0C7FB02214DF2224002F0C2FB38
:10410000A4214DF2234002F0BDFB02214DF22440D8
:1041100002F0B8FBB7214DF2254002F0B3FB0221BB
:104120004DF2264002F0AEFBCF214DF2274002F0C7
:10413000A9FB02214DF2284002F0A4FBDE214DF242
:10414000294002F09FFB02214DF22A4002F09AFB27
:10415000F2214DF22B4002F095FB02214DF22C4052
:1041600002F090FBFE214DF22D4002F08BFB03216B
:104170004DF22E4002F086FB10214DF22F4002F04E
:1041800081FB03214DF2304002F07CFB33214DF2E4
:10419000314002F077FB03214DF2324002F072FB16
:1041A0006D214DF2334002F06DFB00214FF455407C
:1041B00002F068FB33214DF2015002F063FB002155
:1041C0004DF2025002F05EFB34214DF2035002F03A
:1041D00059FB00214DF2045002F054FB3A214DF2FC
:1041E000055002F04FFB00214DF2065002F04AFB51
:1041F0004A214DF2075002F045FB00214DF20850D4
:1042000002F040FB5C214DF2095002F03BFB002123
:104210004DF20A5002F036FB81214DF20B5002F0B4
:1042200031FB00214DF20C5002F02CFBA6214DF287
:104230000D5002F027FB00214DF20E5002F022FB40
:10424000E5214DF20F5002F01DFB01214DF21050FF
:1042500002F018FB13214DF2115002F013FB012163
:104260004DF2125002F00EFB54214DF2135002F0A9
:1042700009FB01214DF2145002F004FB82214DF2A2
:10428000155002F0FFFA01214DF2165002F0FAFA31
:10429000CA214DF2175002F0F5FA02214DF21850E2
:1042A00002F0F0FA00214DF2195002F0EBFA02216F
:1042B0004DF21A5002F0E6FA01214DF21B5002F0C5
:1042C000E1FA02214DF21C5002F0DCFA34214DF2E9
:1042D0001D5002F0D7FA02214DF21E5002F0D2FA20
:1042E00067214DF21F5002F0CDFA02214DF220500D
:1042F00002F0C8FA84214DF2215002F0C3FA0221E3
:104300004DF2225002F0BEFAA4214DF2235002F0E9
:10431000B9FA02214DF2245002F0B4FAB7214DF25D
:10432000255002F0AFFA02214DF2265002F0AAFA0F
:10433000CF214DF2275002F0A5FA02214DF228506C
:1043400002F0A0FADE214DF2295002F09BFA022180
:104350004DF22A5002F096FAF2214DF22B5002F063
:1043600091FA02214DF22C5002F08CFAFE214DF20E
:104370002D5002F087FA03214DF22E5002F082FAFE
:1043800010214DF22F5002F07DFA03214DF23050F2
:1043900002F078FA33214DF2315002F073FA032122
:1043A0004DF2325002F06EFA6D214DF2335002F0B0
:1043B00069FA00214FF4564002F064FA33214DF2BD
:1043C000016002F05FFA00214DF2026002F05AFA39
:1043D00034214DF2036002F055FA00214DF20460E1
:1043E00002F050FA3A214DF2056002F04BFA00213A
:1043F0004DF2066002F046FA4A214DF2076002F0E3
:1044000041FA00214DF2086002F03CFA5C214DF2C5
:10441000096002F037FA00214DF20A6002F032FA28
:1044200081214DF20B6002F02DFA00214DF20C605B
:1044300002F028FAA6214DF20D6002F023FA0021C5
:104440004DF20E6002F01EFAE5214DF20F6002F00F
:1044500019FA01214DF2106002F014FA13214DF205
:10446000116002F00FFA01214DF2126002F00AFA17
:1044700054214DF2136002F005FA01214DF214604F
:1044800002F000FA82214DF2156002F0FBF90121E1
:104490004DF2166002F0F6F9CA214DF2176002F0F3
:1044A000F1F902214DF2186002F0ECF900214DF211
:1044B000196002F0E7F902214DF21A6002F0E2F908
:1044C00001214DF21B6002F0DDF902214DF21C606A
:1044D00002F0D8F934214DF21D6002F0D3F9022127
:1044E0004DF21E6002F0CEF967214DF21F6002F01E
:1044F000C9F902214DF2206002F0C4F984214DF285
:10450000216002F0BFF902214DF2226002F0BAF9F7
:10451000A4214DF2236002F0B5F902214DF224608E
:1045200002F0B0F9B7214DF2256002F0ABF902219B
:104530004DF2266002F0A6F9CF214DF2276002F07D
:10454000A1F902214DF2286002F09CF9DE214DF222
:10455000296002F097F902214DF22A6002F092F9E7
:10456000F2214DF22B6002F08DF902214DF22C6008
:1045700002F088F9FE214DF22D6002F083F903214B
:104580004DF22E6002F07EF910214DF22F6002F004
:1045900079F903214DF2306002F074F933214DF2C4
:1045A000316002F06FF903214DF2326002F06AF9D6
:1045B0006D214DF2336002F065F95521184602F085
:1045C00061F9AA21204602F05DF95221304602F03D
:1045D00059F90821384602F055F90021504602F0F9
:1045E00051F9CC214FF4314002F04CF900214BF24B
:1045F000011002F047F90521584602F043F97021F5
:104600004FF4374002F03EF970214BF2017002F096
:1046100039F901214FF4384002F034F903214BF607
:10462000010002F02FF903214BF6020002F02AF9F3
:1046300003214BF6030002F025F902214FF43C4020
:1046400002F020F900214BF6014002F01BF9002195
:104650004BF6024002F016F9D0214FF4494002F027
:1046600011F902214CF6011002F00CF950214CF620
:10467000021002F007F950214CF6031002F002F983
:1046800050214CF6041002F0FDF800214FF4545074
:1046900002F0F8F855214FF4685002F0F3F84FF4A7
:1046A00088502880782006F0A7FB4FF424502880FB
:1046B00001F04CBDED20288001202080FE202080CC
:1046C000EE202880DE20208021202080F1202880FC
:1046D00001202080DF20288010202080C420288016
:1046E0008F202080C620288000202080E22020808B
:1046F00020802080BF202880AA202080B020288011
:104700000D202080002020800D202080002020808F
:10471000112020800020208019202080002020806F
:1047200021202080002020802D202080002020803B
:104730003D202080002020805D20208000202080DF
:104740005D20208000202080B120288080202080D3
:10475000002020808B202080002020809620208038
:1047600000202080B220288000202080208002208D
:104770002080002020800320208000202080B32083
:1047800028800020208020802080208020802080A1
:104790002080208020802080208020802080208019
:1047A0002080208020802080208020802080208009
:1047B00020802080B42028808B2020800020208032
:1047C0009620208000202080A120208000202080B2
:1047D000B520288002202080002020800320208017
:1047E000002020800420208000202080B620288007
:1047F000002020802080B72028800020208020807A
:104800003F202080002020805E202080002020800B
:1048100064202080002020808C20208000202080A8
:10482000AC20208000202080DC2020800020208000
:104830007020208000202080902020800020208078
:10484000EB20208000202080DC20208000202080A1
:10485000B820288000202080208020802080208098
:10486000208020802080BA202880242020800020E2
:10487000208020802080C1202880202020800020CF
:1048800020805420208000202080FF2020800020D5
:104890002080C22028800A20208000202080042040
:1048A000208000202080C32028803C202080002001
:1048B00020803A2020800020208039202080002085
:1048C000208037202080002020803C202080002075
:1048D0002080362020800020208032202080002070
:1048E00020802F202080002020802C20208000206D
:1048F0002080292020800020208026202080002069
:10490000208024202080002020802420208000205F
:10491000208023202080002020803C202080002038
:10492000208036202080002020803220208000201F
:1049300020802F202080002020802C20208000201C
:104940002080292020800020208026202080002018
:10495000208024202080002020802420208000200F
:1049600020802320208000202080C42028806220F6
:1049700020800020208005202080002020808420AE
:10498000208000202080F02020800020208018201F
:10499000208000202080A42020800020208018205B
:1049A00020800020208050202080002020800C20AB
:1049B000208000202080172020800020208095204B
:1049C000208000202080F320208000202080E6200E
:1049D000208000202080C5202880322020800020D8
:1049E000208044202080002020806520208000201E
:1049F00020807620208000202080882020800020B9
:104A00002080C620288020202080002020801720A1
:104A10002080002020800120208000202080C720CE
:104A2000288000202080208020802080C8202880AE
:104A300000202080208020802080C9202880002025
:104A40002080208020802080208020802080208066
:104A50002080208020802080208020802080208056
:104A6000E020288016202080002020801C2020802C
:104A700000202080212020800020208036202080DF
:104A8000002020804620208000202080522020808E
:104A90000020208064202080002020807A20208038
:104AA000002020808B2020800020208099202080E2
:104AB00000202080A820208000202080B920208095
:104AC00000202080C420208000202080CA20208058
:104AD00000202080D220208000202080D92020802B
:104AE00000202080E020208000202080F3202080F3
:104AF00000202080E12028801620208000202080B7
:104B00001C20208000202080222020800020208067
:104B1000362020800020208045202080002020801A
:104B200052202080002020806420208000202080CF
:104B30007A202080002020808B2020800020208070
:104B40009920208000202080A82020800020208024
:104B5000B920208000202080C420208000202080D8
:104B6000CA20208000202080D220208000202080A9
:104B7000D820208000202080E0202080002020807D
:104B8000F320208000202080E22028800520208043
:104B9000002020800B202080002020801B202080EF
:104BA000002020803420208000202080442020808D
:104BB000002020804F202080002020806120208045
:104BC00000202080792020800020208088202080E4
:104BD000002020809720208000202080A620208098
:104BE00000202080B720208000202080C22020804C
:104BF00000202080C720208000202080D12020801D
:104C000000202080D620208000202080DD202080F1
:104C100000202080F320208000202080E3202880B6
:104C200005202080002020800A2020800020208075
:104C30001C20208000202080332020800020208025
:104C400044202080002020805020208000202080D0
:104C5000622020800020208078202080002020807A
:104C60008820208000202080972020800020208025
:104C7000A620208000202080B720208000202080D7
:104C8000C220208000202080C7202080002020809B
:104C9000D120208000202080D5202080002020806E
:104CA000DD20208000202080F32020800020208034
:104CB000E420288001202080002020800120208006
:104CC0000020208002202080002020802A202080B8
:104CD000002020803C202080002020804B2020804D
:104CE000002020805D2020800020208074202080F3
:104CF000002020808420208000202080932020809D
:104D000000202080A220208000202080B32020804E
:104D100000202080BE20208000202080C420208011
:104D200000202080CD20208000202080D3202080E3
:104D300000202080DD20208000202080F3202080A3
:104D400000202080E52028800020208020802080F6
:104D50002080022020800020208029202080002028
:104D600020803C202080002020804B2020800020BC
:104D700020805D2020800020208074202080002062
:104D8000208084202080002020809320208000200C
:104D90002080A220208000202080B32020800020BE
:104DA0002080BE20208000202080C4202080002081
:104DB0002080CD20208000202080D3202080002053
:104DC0002080DC20208000202080F3202080002014
:104DD0002080E620288011202080002020803420A0
:104DE00020800020208056202080002020807620F7
:104DF00020800020208077202080002020806620D6
:104E00002080002020808820208000202080992081
:104E1000208000202080BB2020800020208099203E
:104E200020800020208066202080002020805520C7
:104E300020800020208055202080002020804520D8
:104E400020800020208043202080002020804420DB
:104E5000208000202080E720288032202080002031
:104E60002080552020800020208076202080002077
:104E70002080662020800020208067202080002065
:104E80002080672020800020208087202080002034
:104E900020809920208000202080BB2020800020BE
:104EA00020809920208000202080772020800020F2
:104EB0002080442020800020208056202080002058
:104EC000208023202080002020803320208000208C
:104ED00020804520208000202080E820288000209D
:104EE0002080208099202080002020808720208022
:104EF00000202080882020800020208077202080B3
:104F000000202080662020800020208088202080B3
:104F100000202080AA20208000202080BB2020802C
:104F20000020208099202080002020806620208082
:104F300000202080552020800020208055202080C7
:104F400000202080442020800020208044202080D9
:104F5000002020805520208000202080E92028800B
:104F6000AA20208000202080208020802880AA2065
:104F70002080CF202880002020802080208020805A
:104F80002080208020802080208020802080208021
:104F900020802080208020802080F0202880002019
:104FA0002080502020800020208020802080F3203E
:104FB000288000202080F9202880062020801020D2
:104FC000208029202080002020803A202880552021
:104FD000208011202880642005F0F2FE29202880FE
:104FE000352028800020208051202880FF2020802C
:104FF000532028802C20208055202880822020804B
:105000002C20FFF754BB00BFA0F513414FF4E06B19
:105010004FF4274A25392ED0A0F5134140F20777E7
:1050200028397DD0A0F513414FF4887A203978D003
:10503000A0F51341313975D0A0F5A841083972D0D7
:10504000A0F5A8514FF4407A05396DD0A0F535414F
:1050500005396AD0A0F54541053967D0A0F58A41E8
:1050600031397CD0A0F58A41353979D0A0F5C851C5
:10507000633976D0FDE347F6F001E52001F002FC4C
:105080003146012001F0FEFB5946022001F0FAFBF7
:1050900041F23001032001F0F5FB0021042001F072
:1050A000F1FB40F20221082001F0ECFB0021092075
:1050B00001F0E8FB00210A2001F0E4FB00210C20B4
:1050C00001F0E0FB00210D2001F0DCFB00210F20AE
:1050D00001F0D8FB0021102001F0D4FB07211120A2
:1050E00001F0D0FB0021122001F0CCFB00211320A5
:1050F00001F0C8FB0021072001F0C4FB41F29061E0
:10510000102001F0BFFB40F22721112001F0BAFB73
:105110009D21122001F0B6FB4FF4C851132006E088
:1051200082E03FE1E5E1BCE258E3FDE3FDE301F0AD
:10513000A9FB2521292001F0A5FB0D212B2001F041
:10514000A1FB0721302001F09DFB40F2033131200B
:1051500001F098FB0321322001F094FB02E0E5E32B
:10516000E5E3E5E340F20621352001F08BFB082161
:10517000362001F087FB40F20641372001F082FB28
:105180004FF44171382001F07DFB0721392001F0F7
:1051900079FB40F202613C2001F074FB08213D20C4
:1051A00001F070FB0021502001F06CFBEF21512039
:1051B00001F068FB0021522001F064FB40F23F1136
:1051C000532001F05FFB5146602001F05BFB0121A1
:1051D000612001F057FB00216A2001F053FB002100
:1051E000802001F04FFB0021812001F04BFB0021CA
:1051F000822001F047FB0021832001F043FB0021C6
:10520000842001F03FFB0021852001F03BFB1021B1
:10521000902001F037FB4FF4C061922001F032FB87
:1052200040F233110720EEE341F28F01EC2001F050
:1052300029FB41F23421EF2001F024FB314601200B
:1052400001F020FB5946022001F01CFB41F2300125
:10525000032001F017FB0021042001F013FB40F2B2
:105260000221082001F00EFB0021092001F00AFBB9
:1052700000210A2001F006FB01210C2001F002FBB5
:1052800000210D2001F0FEFA00210F2001F0FAFAB2
:105290000021102001F0F6FA0721112001F0F2FAA6
:1052A0000021122001F0EEFA0021132001F0EAFAA9
:1052B0000121072001F0E6FA322005F081FD41F2DC
:1052C0009041102001F0DEFA40F22721112001F078
:1052D000D9FA322005F074FD8A21122001F0D2FAA9
:1052E000322005F06DFD4FF4D051132001F0CAFAC1
:1052F0000621292001F0C6FA0D212B2001F0C2FA67
:10530000322005F05DFD0021202001F0BBFA0021D4
:10531000212001F0B7FA322005F052FD00213020A3
:1053200001F0B0FA40F20461312001F0ABFA40F232
:105330000531322001F0A6FA0021352001F0A2FA51
:1053400040F60941362001F09DFA4FF401713720F3
:1053500001F098FA40F20131382001F093FA394611
:10536000392001F08FFA00213C2001F08BFA40F641
:105370000A213D2001F086FA322005F021FD0021AE
:10538000502001F07FFAEF21512001F07BFA00213B
:10539000522001F077FA40F23F11532001F072FAE7
:1053A000514653E10021084601F06CFA31460120D4
:1053B00001F068FA5946022001F064FA41F2300126
:1053C000032001F05FFA0021042001F05BFA40F2B3
:1053D0000221082001F056FA0021092001F052FABA
:1053E00000210A2001F04EFA01210C2001F04AFAB6
:1053F00000210D2001F046FA00210F2001F042FAB1
:10540000322005F0DDFC40F20111072001F03AFAEC
:10541000322005F0D5FC4FF48651102001F032FA0D
:105420000721112001F02EFA53465146122001F0B7
:1054300029FA4FF43061132001F024FA00212920C9
:1054400001F020FA44F210012B2001F01BFA002198
:10545000502001F017FAEF21512001F013FA00213A
:10546000522001F00FFA40F23F11532001F00AFAE6
:105470004FF41C51602001F005FA0121612001F078
:1054800001FA00216A2001F0FDF90021802001F0DD
:10549000F9F90021812001F0F5F90021822001F0C5
:1054A000F1F90021832001F0EDF90021842001F0C1
:1054B000E9F90021852001F0E5F91021902001F0A3
:1054C000E1F90021922001F0DDF90121932001F0A2
:1054D000D9F91946952001F0D5F90021972001F05E
:1054E000D1F90021982001F0CDF940F27311072085
:1054F00087E341F21401E72001F0C4F931460120AD
:1055000001F0C0F94FF40071022001F0BBF941F243
:105510003801032001F0B6F940F20221082001F021
:10552000B1F90021092001F0ADF900210A2001F0B4
:10553000A9F900210C2001F0A5F900210D2001F0AE
:10554000A1F900210F2001F09DF90021102001F0A8
:1055500099F90721112001F095F90021122001F09D
:1055600091F90021132001F08DF9C82005F028FCE5
:1055700041F29061102001F085F940F227211120BD
:1055800001F080F9322005F01BFC0C21122001F003
:1055900079F9322005F014FC4FF40061132001F07A
:1055A00071F91121292001F06DF90B212B2001F057
:1055B00069F9322005F004FC0021202001F062F995
:1055C00040F23F142146212001F05CF900213020F7
:1055D00001F058F94FF483731946312001F052F964
:1055E0000021322001F04EF94FF40171352001F015
:1055F00049F941F20A61362001F044F93946372071
:1056000001F040F91946382001F03CF939463920BB
:1056100001F038F940F202413C2001F033F940F644
:105620000F413D2001F02EF90021502001F02AF910
:10563000EF21512001F026F90021522001F022F93A
:105640002146532001F01EF94FF41C51602001F057
:1056500019F90121612001F015F900216A2001F0FA
:1056600011F90021802001F00DF90021812001F0C5
:1056700009F90021822001F005F90021832001F0C1
:1056800001F90021842001F0FDF80021852001F0BE
:10569000F9F81021902001F0F5F84FF4C061922044
:1056A000FEE33146012001F0EDF85946022001F0F9
:1056B000E9F841F23001032001F0E4F80021042070
:1056C00001F0E0F840F20721082001F0DBF80021AA
:1056D000092001F0D7F800210A2001F0D3F80021B9
:1056E0000C2001F0CFF800210D2001F0CBF80021B3
:1056F0000F2001F0C7F8142005F062FB41F2B06101
:10570000102001F0BFF80121112001F0BBF80121A8
:10571000172001F0B7F84FF49C71122001F0B2F895
:105720004FF40061132001F0ADF80921292001F0A8
:10573000A9F809212A2001F0A5F80021A42001F0F0
:10574000A1F80021502001F09DF8EF21512001F037
:1057500099F80021522001F095F840F23F115320B2
:1057600001F090F84FF41C51602001F08BF80121FA
:10577000612001F087F800216A2001F083F8002100
:10578000802001F07FF80021812001F07BF80021CA
:10579000822001F077F80021832001F073F80021C6
:1057A000842001F06FF80021852001F06BF81321AF
:1057B000902001F067F80021922001F063F80321A6
:1057C000932001F05FF85146952001F05BF840F21C
:1057D0007311072001F056F8322011E10021072053
:1057E00001F050F8322005F0EBFA4FF48E711220E0
:1057F00001F048F80121A42001F044F80F2108200D
:1058000001F040F808210A2001F03CF808210D20A1
:1058100001F038F83946302001F034F80721312002
:1058200001F030F840F20361322001F02BF85C46C1
:105830005946332001F026F840F20221342001F0CD
:1058400021F80221352001F01DF841F60F713620B4
:1058500001F018F83946372001F014F800213820FB
:1058600001F010F80021392001F00CF839463A20F7
:1058700000E048E301F006F800213B2001F002F8C7
:1058800007213C2000F0FEFF00213D2000F0FAFF40
:10589000322005F095FA0121072000F0F3FF0121E5
:1058A000172000F0EFFF322005F08AFA4FF4BD51C7
:1058B000102000F0E7FF40F21721112000F0E2FF76
:1058C0004FF48F71122000F0DDFF4FF47061132050
:1058D00000F0D8FF00212A2000F0D4FF0A2129205F
:1058E00000F0D0FF4FF49F71122000F0CBFF002199
:1058F000502000F0C7FFEF21512000F0C3FF00212E
:10590000522000F0BFFF40F23F11532000F0BAFFD9
:105910004FF41C51602000F0B5FF0121612000F020
:10592000B1FF00216A2004E06EE06BE134E2EBE2BB
:1059300092E300F0A7FF0021802000F0A3FF0021E8
:10594000812000F09FFF0021822000F09BFF0021BA
:10595000832000F097FF0021842000F093FF0021B6
:10596000852000F08FFF1321902000F08BFF51461F
:10597000922000F087FF0521932000F083FF002193
:10598000952000F07FFF0021972000F07BFF002191
:10599000982000F077FF3146012000F073FF214688
:1059A000022000F06FFF41F23801032000F06AFF8F
:1059B0000021042000F066FF00210C2000F062FFAF
:1059C00000210F2000F05EFF0021202000F05AFF90
:1059D0000021212000F056FF2121072000F052FF76
:1059E000142005F0EDF96121072000F04BFF142091
:1059F00005F0E6F940F27311072000F043FF142090
:105A000005F0DEF9A2E3F8E00021084600F03AFFD5
:105A10000021084600F036FF0021084600F032FF62
:105A20000021084600F02EFF0121A42000F02AFFEB
:105A3000142005F0C5F94FF41C542146602000F0F5
:105A400021FF40F202252946082000F01BFF4FF4F9
:105A50000571302000F016FF43F21571312000F07F
:105A600011FF40F20461322000F00CFF40F6166195
:105A7000332000F007FF42F21121342000F002FF32
:105A80004FF4A851352000F0FDFE48F207513620B2
:105A900000F0F8FE41F20741372000F0F3FE41F23A
:105AA0000341382000F0EEFE2021392000F0EAFE0C
:105AB0001A21902000F0E6FE0021102000F0E2FE06
:105AC0000721112000F0DEFE0021122000F0DAFE96
:105AD0000021132000F0D6FE142005F071F94FF4D8
