:020000040800F2
:10000000184E0020B50E0008590500085B050008D1
:100010005F05000863050008670500080000000090
:100020000000000000000000000000004501000882
:100030006B0500080000000089010008550B00084E
:10004000CF0E0008CF0E0008CF0E0008CF0E00081C
:10005000CF0E0008CF0E0008CF0E0008CF0E00080C
:10006000CF0E0008CF0E0008CF0E0008CF0E0008FC
:10007000CF0E0008CF0E0008CF0E0008CF0E0008EC
:10008000CF0E0008CF0E0008CF0E0008CF0E0008DC
:10009000CF0E0008CF0E0008CF0E0008CF0E0008CC
:1000A000CF0E0008CF0E0008CF0E0008CF0E0008BC
:1000B000CF0E0008CF0E0008CF0E0008CF0E0008AC
:1000C000CF0E0008CF0E0008CF0E0008CF0E00089C
:1000D000CF0E0008150D00084D0E0008F13E000877
:1000E000CF0E0008CF0E0008CF0E0008CF0E00087C
:1000F000CF0E0008CF0E0008CF0E0008CF0E00086C
:10010000CF0E0008CF0E0008CF0E0008CF0E00085B
:10011000CF0E0008CF0E0008CF0E0008CF0E00084B
:10012000CF0E0008CF0E0008CF0E0008CF0E00083B
:10013000DFF80CD004F0EEFE00480047050400088C
:10014000184E0020224B19680868B0E8F00F80F3C1
:100150000988BFF36F8F4FF0000080F311884EF0D5
:100160000D0E70470000000006480068006880F32C
:10017000088862B661B6BFF34F8FBFF36F8F00DFA1
:1001800000BF00BF08ED00E0EFF30980BFF36F8F01
:100190000F4B1A6820E9F00F106008B54FF0BF0050
:1001A00080F31188BFF34F8FBFF36F8F02F03FF9D9
:1001B0004FF0000080F31188BDE808401968086816
:1001C000B0E8F00F80F30988BFF36F8F704700BF6E
:1001D00050000020EFF305807047000010B500F0DC
:1001E000C1FC4FF4E13000F046FD4FF4E13000F087
:1001F000D7FD03F027FE00F0A9FA00F023FB03F07F
:1002000017FA10BD0025002403E04FF4FA7000F047
:10021000F0FC03F0B7FA0028F7D118E0681C80B2B0
:100220000546B0F5FA7F07DB88A004F0E7FE03F08F
:10023000A4FB002503F0A6FE002003F0D7F9044636
:1002400014B1204603F0D6FB0A2000F0D2FCE5E70B
:1002500010B583480088002828D0824982A004F085
:10026000CDFE80480078592814D15921834801F0E7
:100270005DFB00BF4021814801F0C6FB0128F9D198
:10028000C821784804F09DFD00207D49086074492C
:1002900008800BE0C821734804F093FD00207849E2
:1002A00008606F49088077A004F0A8FE10BD05E043
:1002B000FFF7CEFF4FF4FA7001F0D1FFF8E700240A
:1002C0000120734908607349C1F8A00172490860B0
:1002D00000207249C1F8940153E0002000F0F0FAC8
:1002E0000446062C48D2DFE804F047030E192431F7
:1002F0006B48006808B9012000E0002068490860E8
:1003000000F060FA3CE06248006808B9012000E0B3
:1003100000205F49086000F062FA31E05E48006842
:1003200008B9012000E000205B49086000F064FA91
:1003300026E059481038006808B9012000E0002084
:1003400055491039086000F063FA19E05048006818
:1003500008B9012000E000204D4908604D48D0F860
:10036000A00108B9012000E000204D49086000F01C
:1003700036FA00F027FA03E00A2000F03AFC00BF4A
:1003800000BFAAE77CB50546012403F09DF8454867
:10039000032100232202CDE9001043A1AFF2E100C6
:1003A00001F09EFC0446012C02D142A004F026FE7E
:1003B0004648032100234FF48072CDE9001044A188
:1003C000AFF2151001F08CFC0446012C02D144A0C0
:1003D00004F014FE484802210023CA01CDE90010B0
:1003E00046A1AFF2DF1001F07BFC0446012C02D1E4
:1003F00045A004F003FE4A48006801F0C2FC03F087
:1004000072F87CBD1CB501244FF4A06000F064FDBF
:10041000FFF7E4FE4348016843A004F0EFFD4048C5
:10042000012100230A02CDE9001048A1AFF2AB0080
:1004300001F056FC0446012C02D102F07FF902E0E3
:100440004FF0FF301CBD0020FCE700004F6E654EF2
:1004500065745F53656E64446174610D0A00000049
:1004600034000020840100205553415254325F5221
:10047000585F4255463A25730D0A0000004400407B
:100480003800002066616365206661696C0D0A00B2
:100490008881224200002142A48121420080214221
:1004A000A00121420400002046524D41494E5F7494
:1004B00061736B00B4B4BDA846524D41494EC8CEDD
:1004C000CEF1B3C9B9A6210D0A0000000800002032
:1004D00070726573735F46525F7461736B000000E6
:1004E000B4B4BDA870726573735F4652C8CECEF1C6
:1004F000B3C9B9A6210D0A000C00002046525F4680
:10050000756E5F7461736B00B4B4BDA846525F46EC
:10051000756EC8CECEF1B3C9B9A6210D0A00000090
:10052000000000201000002057656C636F6D65208F
:10053000746F204672656552544F532C436F726539
:10054000436C6F636B3A25640D0A0000737461722B
:10055000745F7461736B0000704700BFFEE700BFFB
:10056000FEE700BFFEE700BFFEE770470CB50020C6
:10057000019000906C48006840F480306A4908603F
:1005800000BF6948006800F4003000900198401CEA
:100590000190009818B90198B0F5A06FF1D16248A8
:1005A000006800F4003010B10120009001E000204C
:1005B00000900098012843D15C48006840F010008A
:1005C0005A4908600846006820F0030008600846A1
:1005D000006840F002000860534840685249486093
:1005E0000846406848600846406840F480604860BB
:1005F0000846406820F47C1048600846406840F493
:10060000E81048600846006840F08070086000BF4D
:100610004548006800F000700028F9D04248406862
:1006200020F00300404948600846406840F002005E
:10063000486000BF3C48406800F00C000828F9D131
:100640000CBD10B5FFF792FF10BD10B5364800681D
:1006500040F00100344908600846406834490840C9
:100660003149486008460068324908402E49086010
:100670000846006820F4802008600846406820F49E
:10068000FE0048604FF41F008860FFF7DAFF4FF06C
:1006900000602949086010BD10B50021002000222B
:1006A000214B5B6803F00C0121B1042906D0082915
:1006B00028D107E0214B224C236027E01F4B204C20
:1006C000236023E0184B5B6803F47010164B5B68E3
:1006D00003F48032022303EB904022B9194B4343C9
:1006E000174C23600DE0104B5B6803F4003323B11B
:1006F000144B4343124C236003E0104B4343104C14
:10070000236003E00D4B0E4C236000BF00BF064B7F
:100710005B68C3F303130C4CE15C094B1B68CB40D3
:10072000074C236010BD0000001002400020024072
:100730000000FFF8FFFFF6FE08ED00E000127A006F
:100740001000002000093D001400002008B5012120
:100750002C2000F04BFF4FF48070ADF8000010200B
:100760008DF8030003208DF8020069462F4800F041
:1007700081FC4FF480712D4800F029FD4FF400708A
:10078000ADF8000069462A4800F074FC4FF400718F
:10079000274800F01EFD2020ADF8000069462448DF
:1007A00000F068FC2021224800F013FD0420ADF881
:1007B000000069461F4800F05DFC04211D4800F060
:1007C00006FD08BD1C480068012801D100207047C3
:1007D0001948006808B90120F9E700BFF7E7174892
:1007E0000068012801D1002070471448006808B94A
:1007F0000120F9E700BFF7E711480068012800D1A0
:1008000070470F48006808B90020F9E700BFF7E714
:100810000B4810380068012800D17047084810388C
:10082000006808B90020F8E700BFF6E700080140BB
:10083000000C014000140140A001214288812242A5
:10084000A481214208B501211C2000F0CFFE012126
:10085000554800F0E0FC4FF40040ADF8000048209F
:100860008DF803006946514800F004FC2020ADF8E3
:10087000000048208DF8030069464D4800F0FAFB5F
:100880000120ADF8000028208DF803006946474894
:1008900000F0F0FB4FF48070ADF8000028208DF8D8
:1008A00003006946434800F0E5FB8020ADF80000F6
:1008B00028208DF8030069463E4800F0DBFB08BDA8
:1008C00010B5044614B101203B4908703A4800783D
:1008D000002847D02021364800F05FFCB0B14FF42B
:1008E0000041324800F059FC80B14FF4807131482A
:1008F00000F053FC50B180212E4800F04EFC28B18E
:1009000001212A4800F049FC01282BD10A2000F0DF
:1009100070F90020284908702021254800F03DFC8E
:1009200008B9012010BD4FF40041204800F035FC0B
:1009300008B90220F6E74FF480711E4800F02DFC44
:1009400008B90320EEE780211A4800F026FC08B918
:100950000420E7E70121154800F01FFC012821D100
:100960000520DFE72021124800F017FC012819D1EB
:10097000C1030E4800F011FC012813D101020D48FB
:1009800000F00BFC01280DD180210A4800F005FC85
:10099000012807D10121054800F0FFFB10B9012013
:1009A000054908700020BDE7000230000008014042
:1009B00000100140000C01402400002010B56248E6
:1009C000006820F0F000604908600846006840F0C8
:1009D0003000086000205D490860142000F009F92B
:1009E00001205B49C1F884011E2000F0E0F810BD31
:1009F00010B500245448006820F0F0005249086007
:100A00000846006840F08000086004E0601CC4B242
:100A1000012000F0CCF84D488038006808B1642C03
:100A2000F4DB642C01DB012010BD002404E0601C19
:100A3000C4B2012000F0BBF844488038006808B90F
:100A4000642CF4DB642C01DB0120EDE70020EBE7F4
:100A500010B5002404E0601CC4B2012000F0A7F827
:100A60003A488038006808B1642CF4DB002404E0C4
:100A7000601CC4B2012000F09AF834488038006845
:100A800008B9642CF4DB282000F091F82F48803856
:100A9000006808B1012010BD0020FCE770B50024FB
:100AA000002506E06006040EFFF7D2FF0443681C31
:100AB000C5B2082DF6DB204670BD7CB505460E4656
:100AC000FFF77CFFFFF794FFF8B9002405E0FFF77C
:100AD000E5FF0DF80400601CC4B2052CF7DB9DF89F
:100AE00000009DF8011008449DF8021008449DF88C
:100AF000031008449DF80410884208D19DF80000B6
:100B000030709DF80200287001E001207CBD0020BB
:100B1000FCE708B50121042000F068FD0220ADF8D3
:100B2000000010208DF8030003208DF802006946B4
:100B3000054800F09FFA0221034800F048FBFFF748
:100B40003DFFFFF755FF08BD000801408401214229
:100B50000000214210B501F0D7FF012801D002F0BA
:100B6000D0FC10BD10B5042000F005FA364800682E
:100B70003649B0FBF1F03649087033480068334914
:100B8000B0FBF1F44FF47A704443012031490880FE
:100B90004FF0E020006940F002004FF0E0210861D2
:100BA00008464461006940F00100086110BD70B55D
:100BB000034600224FF0E0267569254E367803FB88
:100BC00006F44FF0E026B16910E04FF0E026B0697E
:100BD00088420BD0884202D20E1A324402E02E1A0A
:100BE0000E4432440146A24200D300E0EDE700BFCC
:100BF00070BD70B5044601F087FF012810D015487C
:100C00000088844206D313480088B4FBF0F52846D8
:100C100001F025FB0F480088B4FBF0F100FB114404
:100C20004FF47A7104FB01F0FFF7C1FF70BD30B5DE
:100C30000446002504E04FF47A70FFF7B8FF6D1CFE
:100C4000A542F8D330BD00001000002040420F0044
:100C50002600002028000020014600BF704700BF8A
:100C60004B4A128802F04002002AF9D0C2B2484B27
:100C70001B1D1A80704710B586B00446012144F24E
:100C8000040000F0B3FC4FF40070ADF81400032032
:100C90008DF8160018208DF8170005A93D4800F0C2
:100CA000E9F948208DF8170003208DF816004FF45D
:100CB0008060ADF8140005A9364800F0DBF9252066
:100CC0008DF8000003208DF801008DF8020001204E
:100CD0008DF80300684600F004F901940020ADF897
:100CE0000800ADF80A00ADF80C00ADF810000C20BB
:100CF000ADF80E0001A9264800F01FFD012240F2C8
:100D00002551234800F0B1FD0121214800F0A1FD4B
:100D100006B010BD10B540F225511D4800F08AFE06
:100D200010B31B4800F006FEC4B21B48008800F454
:100D30000040C8B91848008800F4804060B10A2C0F
:100D400003D000201449088020E01348008840F4B4
:100D500000401149088019E00D2C06D10E4800888A
:100D600040F480400C49088010E00B480088C0F334
:100D70000D000A490C5408480088401C06490880A8
:100D800008460088C72801DD0020088010BD00004B
:100D9000003801400008014030000020BC00002065
:100DA00010B586B004460121042000F01FFC01218B
:100DB000480400F028FC0420ADF8140003208DF84E
:100DC000160018208DF8170005A9354800F052F9D3
:100DD00004208DF8170003208DF816000820ADF8C8
:100DE000140005A92E4800F045F926208DF80000D2
:100DF00003208DF801008DF8020001208DF803001A
:100E0000684600F06EF801940020ADF80800ADF8D7
:100E10000A00ADF80C00ADF810000C20ADF80E0083
:100E200001A9204800F089FC012240F225511D480B
:100E300000F01BFD012240F224411A4800F015FD8C
:100E40000121184800F005FD06B010BD10B50020C6
:100E50001549088040F22551124800F0EBFD80B1A1
:100E600040F225510F4800F00FFE0E4800F062FDE1
:100E7000C4B20E4801680068401C0C4A10600C485F
:100E8000445440F22441074800F0D4FD38B10548ED
:100E900000880448001D008801200349088010BD17
:100EA00000080140004400403400002038000020C9
:100EB000840100200648804706480047FEE7FEE719
:100EC000FEE7FEE7FEE7FEE7FEE7FEE7FEE7FEE7FA
:100ED0004B0600083101000831490143314A1160D5
:100EE000704770B5002100230F22C47804B32D4C45
:100EF000246804F4E064C4F5E064210AC1F1040349
:100F0000CA40447804FA03F184781440214309016B
:100F1000254C0678A155047804F01F050124AC4047
:100F200005786D11AD0005F1E025C5F8004109E037
:100F3000047804F01F050124AC401C4D067876119E
:100F400045F8264070BD1A4A0A400243154B1B1F44
:100F50001A60704739B1134A121D12680243114BCF
:100F60001B1D1A6006E00F4A121D126882430D4BCA
:100F70001B1D1A607047042808D14FF0E021096951
:100F800041F004014FF0E022116107E04FF0E02151
:100F9000096921F004014FF0E0221161704700005F
:100FA0000000FA050CED00E000E400E080E100E064
:100FB00080FFFF1F10B50446CC48844208D10121B0
:100FC000042000F02DFB0021042000F029FB46E066
:100FD000C748844208D10121082000F021FB0021EC
:100FE000082000F01DFB3AE0C248844208D10121EC
:100FF000102000F015FB0021102000F011FB2EE066
:10100000BD48844208D10121202000F009FB0021C5
:10101000202000F005FB22E0B848844208D10121DD
:10102000402000F0FDFA0021402000F0F9FA16E01F
:10103000B348844208D10121802000F0F1FA002158
:10104000802000F0EDFA0AE0AE48844207D1012189
:10105000801500F0E5FA0021A01500F0E1FA10BDBE
:1010600010B50121084600F0DBFA0021012000F054
:10107000D7FA10BD2DE9F0410246002500260020D8
:1010800000230024002791F803C00CF00F0591F80D
:1010900003C00CF0100CBCF1000F03D091F802C09B
:1010A0004CEA050591F800C0BCF1000F31D014687E
:1010B00000202BE04FF0010C0CFA00F3B1F800C057
:1010C0000CEA03069E4220D183004FF00F0C0CFA6D
:1010D00003F7BC4305FA03FC4CEA040491F803C08F
:1010E000BCF1280F06D14FF0010C0CFA00FCC2F83D
:1010F00014C00AE091F803C0BCF1480F05D14FF0CD
:10110000010C0CFA00FCC2F810C0401C0828D1D316
:101110001460B1F800C0BCF1FF0F34DD546800204A
:101120002EE000F1080C4FF0010808FA0CF3B1F8BA
:1011300000C00CEA03069E4221D183004FF00F0C41
:101140000CFA03F7BC4305FA03FC4CEA040491F8DB
:1011500003C0BCF1280F05D100F1080C08FA0CF807
:10116000C2F8148091F803C0BCF1480F07D100F118
:10117000080C4FF0010808FA0CF8C2F81080401C67
:101180000828CED35460BDE8F0814FF6FF7101808E
:10119000022181700421C1707047024600209368CB
:1011A0000B400BB1012000E0002070470146886829
:1011B00080B2704702460020D3680B400BB101207B
:1011C00000E0002070470146C86880B270470161A6
:1011D0007047416170470AB1016100E041617047A9
:1011E000C16070474FF480320A438261816182613D
:1011F00082698269704702460020434B18684FF6A7
:101200008073184040EA021008433F4B1860704753
:101210003E49C8617047F0B50A460023002400210A
:10122000002500F00046B6F1004F02D1364EF169BC
:1012300001E0354E7168C0F3034583B200F44016F7
:10124000B6F5401F08D121F070612F4E766826F068
:1012500070662D4F7E6012E000F48016B6F5801F98
:1012600006D1032606FA05F4A14341F0706106E0B9
:10127000460D360103FA06F6B14341F0706122B122
:10128000460D360103FA06F6314300F00046B6F18A
:10129000004F02D11C4EF16101E01B4E7160F0BDA8
:1012A00030B500228B071C0F0F2303FA04F2164BF4
:1012B00008338C1053F824309343134C08348D10AA
:1012C00044F8253023468C1053F824308C07240F23
:1012D00000FA04F423430C4C08348D1044F82530F4
:1012E00030BD0A49DC310860704700000008014049
:1012F000000C0140001001400014014000180140A2
:10130000001C01400020014000000140000020427C
:10131000DF48006840F00100DD4908600846406889
:10132000DC490840DA49486008460068DA49084064
:10133000D74908600846006820F480200860084605
:10134000406820F4FE0048604FF41F00886070473A
:10135000CF49096821F48031CD4A116011460968EE
:1013600021F480211160B0F5803F03D0B0F5802FCB
:101370000ED106E0C649096841F48031C44A1160C3
:1013800007E0C349096841F4A021C14A116000E0A7
:1013900000BF00BF704710B50146002200230020A7
:1013A0004A11012A02D1BA4C236806E0022A02D16E
:1013B000B74C236A01E0B64C636A01F01F020124B6
:1013C00094401C400CB1012000E0002010BD38B555
:1013D000002000900024002500BF3120FFF7DBFF34
:1013E00005460098401C00900098B0F5A06F01D011
:1013F000002DF2D03120FFF7CEFF08B1012400E02C
:101400000024204638BD01460020A14A106820F083
:10141000F80040EAC10010607047A04908607047BA
:10142000024600209A4B586820F47C1042EA0103DF
:101430001843974B586070479849086670470146B3
:101440000020934A506820F0030008435060704722
:101450008F48406800F00C007047014600208C4A1D
:10146000506820F0F00008435060704701460020AB
:10147000874A506820F4E060084350607047014696
:101480000020834A506820F4605040EAC100506058
:10149000704729B17E4A527A02437D4B5A7204E06A
:1014A0007B4A527A82437A4B5A7270477B49D831D1
:1014B0000860704701460020754A506820F440409B
:1014C0000843506070470021714A20321170704A01
:1014D00082F82010012802D004280AD104E001215A
:1014E0006B4A2032117005E00521694A20321170E3
:1014F00000E000BF00BF7047694908607047644959
:10150000096A0143624A11627047654944390860BB
:10151000704730B500210022002400235C4D6D6827
:1015200005F00C0121B1042905D0082923D105E0DB
:101530005C4D056022E05B4D05601FE0544D6D6819
:1015400005F47012524D6D6805F48034022505EBE8
:1015500092421CB9544D554305600BE04C4D6D68EB
:1015600005F400351DB1504D5543056002E04D4D69
:101570005543056002E04B4D056000BF00BF444D80
:101580006D6805F0F0010909484D6B5C0568DD40A8
:1015900045603F4D6D6805F4E061090A434D6B5CA1
:1015A0004568DD4085603A4D6D6805F46051C90AB3
:1015B0003E4D6B5C4568DD40C560354D6D6805F49A
:1015C0004041890B3A4D6B5CC568B5FBF3F505618D
:1015D00030BD29B12E4A526902432D4B5A6104E0B5
:1015E0002B4A526982432A4B5A61704729B1284AD3
:1015F00092690243264B9A6104E0254A926982432C
:10160000234B9A61704729B1214AD2690243204B8A
:10161000DA6104E01E4AD26982431D4BDA617047E9
:1016200029B11B4AD2680243194BDA6004E0184A18
:10163000D2688243164BDA60704729B1144A1269A6
:101640000243134B1A6104E0114A12698243104BA2
:101650001A61704712494039086070470F49C864E1
:1016600070470B49C87170470948406A40F0807064
:1016700007494862704701460020054A92680A40BF
:101680000AB1012000E000207047014988727047CC
:10169000001002400000FFF8FFFFF6FE000042428B
:1016A0008004424200127A0000093D003C00002004
:1016B0004C00002010B50446FB48844209D10121AA
:1016C0008803FFF7ADFF00214FF48040FFF7A8FF2C
:1016D00032E0F648844209D101214804FFF7ADFF0A
:1016E00000214FF40030FFF7A8FF25E0F0488442C6
:1016F00009D101218804FFF7A0FF00214FF48020C9
:10170000FFF79BFF18E0EB48844209D10121C80490
:10171000FFF793FF00214FF40020FFF78EFF0BE04F
:10172000E548844208D101210805FFF786FF002122
:101730004FF48010FFF781FF10BD2DE9F04786B010
:1017400005460E460024A24600BFA1460027B089E8
:1017500000B100BF2F462C8A4CF6FF700440F08881
:1017600004432C82AC894EF6F3100440B0883189D2
:101770000843718908430443AC81AC8A4FF6FF40AB
:101780000440B0890443AC8201A8FFF7C2FEC648FA
:10179000874202D1DDF810A001E0DDF80CA0A88995
:1017A00000F4004040B10AEBCA0000EB0A103168B7
:1017B0004900B0FBF1F807E00AEBCA0000EB0A10A1
:1017C00031688900B0FBF1F86420B8FBF0F0040147
:1017D0002009642101FB1089A88900F4004040B170
:1017E000322000EBC900B0FBF1F000F00700044329
:1017F00008E0322000EB09106421B0FBF1F000F0AA
:101800000F0004432C8106B0BDE8F0874FF4165159
:10181000016000218180C18001810C214181002172
:101820008181704710B502460020108A4FF2FF03F5
:1018300018400B884C8823438C882343CC8823434F
:101840001843108210BD0021018041808180C18039
:10185000704721B1828942F40052828104E082897A
:101860004DF6FF731A4082817047F0B5034600249D
:1018700000260025002040F66A17B94200D100BFBB
:101880001846C1F3421401F01F06012707FA06F5B6
:10189000012C01D10C3004E0022C01D1103000E009
:1018A00014301AB107682F43076002E00768AF439E
:1018B0000760F0BD1AB1838A0B43838202E0838AFA
:1018C0008B4383827047028A4FF6F0731A4002827C
:1018D000028A0A430282704782894FF2FF731A40DC
:1018E000828182890A438281704721B1828942F0D4
:1018F0000202828104E082894FF6FD731A408281E0
:101900007047028A4FF6DF731A400282028A0A4346
:101910000282704721B1028A42F48042028204E0CE
:10192000028A4BF6FF731A4002827047C1F3080225
:101930008280704701468888C0F30800704781891B
:1019400041F0010181817047028BD2B20283028B88
:1019500042EA012202837047028B02F47F42028333
:10196000028B0A430283704721B1828A42F020022F
:10197000828204E0828A4FF6DF731A4082827047C7
:1019800021B1828A42F01002828204E0828A4FF6FC
:10199000EF731A408282704721B1828A42F00802B6
:1019A000828204E0828A4FF6F7731A40828270477F
:1019B00021B1828942F40042828103E08289C2F32C
:1019C0000E028281704721B1828A42F400628282D3
:1019D00004E0828A4FF2FF731A4082827047828A43
:1019E0004FF6FB731A408282828A0A4382827047D2
:1019F00021B1828A42F00202828204E0828A4FF69A
:101A0000FD731A408282704702460020B1F5007FC4
:101A100000D100BF13880B400BB1012000E0002073
:101A2000704701F40072B2F5007F00D100BFCA43D5
:101A30000280704770B50246002400230025002074
:101A400040F66A16B14200D100BFC1F3421501F061
:101A50001F03012606FA03F3012D02D196893340B4
:101A600006E0022D02D1168A334001E0968A334007
:101A70000C12012606FA04F41688344013B10CB196
:101A8000012000E0002070BD10B50022002340F6C8
:101A90006A14A14200D100BF0A1201249440A3B2EB
:101AA000DC43048010BD00000038014000440040C9
:101AB00000480040004C00400050004000F1080188
:101AC00041604FF0FF31816000F10801C1600161A8
:101AD00000210160704700210161704742684A603F
:101AE00093688B60936859609160086103685B1C20
:101AF0000360704710B502460B685C1C0CB9106996
:101B000007E002F1080000E04068446824689C4255
:101B1000FAD944684C604C68A160886041600A61F1
:101B20001468641C146010BD01460A69D1E90130D3
:101B30009860D1E9010358605068884201D18868F3
:101B40005060002008611068401E106010687047E7
:101B500010B5002407E004EB8401FE4A02EB81008B
:101B6000FFF7ACFF641C052CF5D3FB48FFF7A6FF7D
:101B7000FA48FFF7A3FFFA48FFF7A0FFF948FFF77D
:101B80009DFFF948FFF79AFFF348F8490860F348CA
:101B9000F749086010BD10B5044601F095FCF54802
:101BA0000068401CF3490860F348006840B9F248F7
:101BB00004600846006801280DD1FFF7C9FF0AE05C
:101BC000EE48006838B9EC480068C06AE16A8842AB
:101BD00001D8E9480460EA480068401CE849086008
:101BE00000BF94F82C1001208840E649096808439A
:101BF000E449086000BFE16A01EB8101D54A02EBCC
:101C000081014868A0608268E260211D826851609D
:101C10008160E16A01EB8101CE4A02EB81026261DF
:101C2000E16A01EB8101CB4A52F82110491CE26ABA
:101C300002EB8202C74B43F8221000BF00BF01F045
:101C400052FCCE48006868B1CB480068C06AE16ABF
:101C5000884207D24FF08050CB490860BFF34F8FC6
:101C6000BFF36F8F10BD2DE9FF5F80460E46914692
:101C7000DDE90E7A109CA9F10100216B01EB800BCC
:101C80002BF0070B7EB1002507E0715D04F13400F5
:101C90004155705D00B902E06D1C102DF5D300BFF9
:101CA000002143200155052F00D30427E762201DA2
:101CB000FFF711FF04F11800FFF70DFF2461C7F1D2
:101CC0000500A061646241465846039A01F0CDFBCD
:101CD0002060BAF1000F01D0CAF80040BDE8FF9FB4
:101CE0002DE9FF4F85B0804689461746DDE912ABE6
:101CF000B80001F0B4FA064676B14C2001F0AFFA14
:101D000004462CB14C21204603F05BF8266304E026
:101D1000304601F019FB00E000247CB10020CDE941
:101D200000ABCDE902403A4649464046089BFFF7E2
:101D30009AFF2046FFF72FFF012501E04FF0FF3506
:101D4000284609B0BDE8F08F10B50446206B01F0BD
:101D5000FBFA204601F0F8FA10BD844800680068DC
:101D600008B9012000E0002020B14FF0FF30874982
:101D7000086005E07D480068C06800688349086025
:101D8000704770B5054601F09FFB15B97A480068A9
:101D900000E028460446201DFFF7C6FE88B900BFB4
:101DA000E06A00EB80006B4951F8200040B994F8DC
:101DB0002C100120884073490968814371480160F3
:101DC00000BFA06A18B104F11800FFF7ADFE6C481F
:101DD0000068401C6A49086067480068844209D16D
:101DE000211D6048FFF77AFE69480068401C684979
:101DF000086006E05F480068401E5E490860FFF723
:101E0000ACFF01F070FB5C480068844202D02046C1
:101E1000FFF79AFF5948006858B157480068844254
:101E200007D14FF0805058490860BFF34F8FBFF380
:101E30006F8F70BD2DE9F0410027564800680028DB
:101E40007DD155480068451C5348056095B900BFD1
:101E50004648D0F800804648006844490860444835
:101E6000C0F800804D480068401C4C490860FFF7EE
:101E700074FF00BF45480068854269D300BF3B48F6
:101E80000068006808B9012000E0002020B14FF090
:101E9000FF303E49086097E034480068C068C46875
:101EA0006668B54202D2394806608DE000BF6069BD
:101EB000D4E902128A60D4E902214A60211D4268F5
:101EC0008A4201D1E1684160002262610168491ED5
:101ED000016000BFA06AA0B100BFA06AD4E90712E8
:101EE0008A60D4E907214A6004F1180142688A42F5
:101EF00001D1216A41600022A2620168491E01608D
:101F000000BF00BF94F82C10012088401D490968CB
:101F100008431C49086000BFE16A01EB81010D4ADA
:101F200002EB81014868A0608268E260211D82683E
:101F300051608160E16A01EB8101064A00E054E0F2
:101F400002EB81026261E16A01EB8101014A27E053
:101F50003BE000004C020020B0020020C402002040
:101F6000D8020020EC0200200003002054000020D2
:101F70005800002060000020500000206C0000206D
:101F80007C0000206800002004ED00E080000020BC
:101F90005C0000208C0000206400002078000020FD
:101FA00052F82110491CE26A02EB8202FD4B43F811
:101FB000221000BF00BFFC49E06A0968C96A884274
:101FC0007FF65DAF01275AE700BFF7480068C06A97
:101FD00000EB8000F34951F82000012800D90127C7
:101FE000F248006800B1012704E0F1480068401C95
:101FF000EF4908603846BDE8F08170B5002400263E
:1020000001F062FAEB480068401EEA4908600846A1
:10201000006800287ED1E848006800287AD063E094
:10202000E648C068C46800BFA06AD4E907128A60A5
:10203000D4E907214A6004F1180142688A4201D1BB
:10204000216A41600022A2620168491E016000BF4E
:1020500000BF6069D4E902128A60D4E902214A60B3
:10206000211D42688A4201D1E1684160002262611B
:102070000168491E016000BF00BF94F82C100120C8
:102080008840CF4909680843CD49086000BFE16A2C
:1020900001EB8101C34A02EB81014868A0608268BC
:1020A000E260211D826851608160E16A01EB81017B
:1020B000BC4A02EB81026261E16A01EB8101B94A2B
:1020C00052F82110491CE26A02EB8202B54B43F838
:1020D000221000BF00BFB449E06A0968C96A88429B
:1020E00002D90120B1490860B448006808B901204C
:1020F00000E00020002893D00CB1FFF72EFEAC4882
:10210000056875B100BFFFF795FE10B10120A74922
:10211000086000E010E06D1E002DF4D10020A449FD
:102120000860A248006838B101263007A549086058
:10213000BFF34F8FBFF36F8F01F0D5F9304670BDFD
:102140002DE9F04105460E469F480768964800680D
:10215000001DFFF7E9FC50B99348006890F82C1077
:102160000120884096490968814395480160681CB0
:10217000E0B9DEB100BF954948688B4909688860BD
:10218000894982680968CA6087490968091D8268A7
:10219000516085490968091D81608C4A8249096836
:1021A0004A6111460968491C11601AE07C197E4891
:1021B00000684460BC4207D27B480168091D84481E
:1021C0000068FFF797FC0CE077480168091D81481B
:1021D0000068FFF78FFC80480068844201D27E4887
:1021E0000460BDE8F08173480068401C71490860D4
:1021F00070472DE9F047044688464FF00009FFF785
:10220000F2FF71480668206800EB08052068B042BC
:1022100007D92068A8420BD9B54209D94FF0010966
:1022200006E02068A84201D8B54201D94FF0010963
:102230002560B9F1000F03D0A81B0021FFF780FF34
:10224000FFF7DBFE07463FB94FF080505D4908605D
:10225000BFF34F8FBFF36F8F4846BDE8F08770B56F
:102260000446002544B1FFF7BEFF00212046FFF7DA
:1022700067FFFFF7C2FE05463DB94FF08050514958
:102280000860BFF34F8FBFF36F8F70BD70B504460A
:1022900001F01AF914B94448006800E020460646E7
:1022A000F56A01F020F9284670BD70B5024600BFFE
:1022B000BF25EFF3118485F31188BFF34F8FBFF370
:1022C0006F8F00BF214612B9374C246800E01446D6
:1022D0002346D86A00BF81F3118800BF70BD2DE985
:1022E000F04780460D464FF00009052D00D3042528
:1022F00001F0EAF8B8F1000F02D12B48006800E0C5
:1023000040460446E66AAE4269D0B5420BD926483B
:10231000006884420DD024480068C06AA84208D2F0
:102320004FF0010905E020480068844201D14FF0D8
:102330000109E76AE562A06900F0004010B9C5F143
:102340000500A06107EB8701164A02EB8101606975
:10235000884201D1012000E00020F8B3201DFFF7E2
:10236000E3FB30B90120B84015490968814314489E
:10237000016000BF94F82C100120884010490968C2
:1023800008430F49086000BFE16A01EB8101054A7B
:1023900002EB81014868A0608268E260211D8268CA
:1023A00051601DE04C02002050000020740000200D
:1023B000700000208C00002060000020D802002067
:1023C0006800002004ED00E064000020000300200D
:1023D00058000020540000208000002017E022E078
:1023E0008160E16A01EB8101F74A02EB81026261DF
:1023F000E16A01EB8101F44A52F82110491CE26ABA
:1024000002EB8202F04B43F8221000BF00BFB9F18B
:10241000000F07D04FF08050EC490860BFF34F8F9A
:10242000BFF36F8F00BF01F05EF8BDE8F087E848AA
:10243000006818B10120E74908601FE00020E54965
:10244000086000BFE4480068B0FA80F0C0F11F01E6
:1024500000BF01EB8102DC4B03EB82004268526853
:10246000426000F108024368934201D1C2684260B1
:102470004268D268D94B1A6000BF00BF704770B580
:10248000054601F021F815B9D448006800E0284657
:102490000446201DFFF748FB88B900BFE06A00EB47
:1024A0008000C94951F8200040B994F82C1001204F
:1024B0008840C94909688143C748016000BFA06AD4
:1024C00018B104F11800FFF72FFB211DC448FFF7D6
:1024D00005FB002009E004F14801095C012903D152
:1024E000002204F148010A54401C0128F3DB00F0EB
:1024F000FAFFBC48006828B100F0E6FFFFF72DFCAA
:1025000000F0F1FFB5480068844217D1B548006873
:1025100040B14FF08050AD490860BFF34F8FBFF31B
:102520006F8F0BE0AE480068AF490968884203D15D
:102530000020AA49086001E0FFF779FF70BD10B5DF
:10254000014600200A46A64C5369A34201D101234B
:1025500000E0002373B1A54C936AA34201D101238B
:1025600000E0002333B9936A0BB9012300E0002394
:1025700003B1012010BD70B505462C469748006890
:1025800084424AD0002C48D000F09EFF2046FFF73E
:10259000D6FF00283FD0201DFFF7C6FA00BF94F8F1
:1025A0002C10012088408C49096808438A4908603A
:1025B00000BFE16A01EB8101834A02EB81014868B7
:1025C000A0608268E260211D826851608160E16ADA
:1025D00001EB81017C4A02EB81026261E16A01EB5D
:1025E0008101794A52F82110491CE26A02EB820209
:1025F000754B43F8221000BF00BF7849E06A0968B4
:10260000C96A884207D94FF0805070490860BFF30B
:102610004F8FBFF36F8F00F066FF70BD2DE9F04163
:1026200006460027344600BFBF21EFF3118081F337
:102630001188BFF34F8FBFF36F8F00BF0546204651
:10264000FFF77DFF002844D06148006800283BD197
:102650006249E06A0968C96A884203D901270120F2
:102660005C490860201DFFF75FFA00BF94F82C104A
:10267000012088405849096808435749086000BF4D
:10268000E16A01EB8101504A02EB81014868A060D8
:102690008268E260211D826851608160E16A01EB1D
:1026A0008101494A02EB81026261E16A01EB810129
:1026B000454A52F82110491CE26A02EB8202424B61
:1026C00043F8221000BF04E004F118014748FFF767
:1026D00005FA00BF85F3118800BF3846BDE8F081D8
:1026E00010B516E000F0F0FE4148C068C468201D37
:1026F000FFF71AFA3C480068401E3B4908603D4815
:102700000068401E3B49086000F0EDFE2046FFF7E0
:102710001BFB384800680028E4D110BD00BFFFF75C
:10272000DFFF294800680128F9D94FF08050274978
:102730000860BFF34F8FBFF36F8FF0E71CB52E48D3
:1027400000210B468022CDE900102CA12D48FFF777
:10275000C7FA0446012C14D100BFBF2080F31188B2
:10276000BFF34F8FBFF36F8F00BF4FF0FF3026498D
:10277000086001201B49086000202449086000F01F
:102780008DFE234800681CBD10B500BFBF2080F33C
:102790001188BFF34F8FBFF36F8F00BF0020114927
:1027A000086000F090FE10BD1849086870470021CD
:1027B000164A106870470C4800687047014611B906
:1027C0000648006827E025E04C02002004ED00E008
:1027D0008C000020740000206800002050000020C1
:1027E000000300206C00002060000020D8020020C0
:1027F000EC0200205C0000208400002049444C458D
:10280000000000001D270008800000206400002058
:10281000880000200846024602F13400704770B577
:102820000446FFF7E0FC00F04FFEFE48006820443D
:10283000FC49086000F057FEFFF7DFFB054628461D
:1028400070BD70B505460C46F7480168183128463A
:10285000FFF750F901212046FFF772FC70BD70B5FB
:1028600004460D46164645F00040EF490968886168
:1028700000BF6068EC490968C861EB498268096873
:102880000A62E9490968183182685160E6490968B5
:1028900018318160E44909688C622168491C216013
:1028A00000BF01213046FFF74BFC70BD70B50346F9
:1028B000D868C16800BF886AD1E90745A560D1E939
:1028C0000754656001F118044568A54201D10C6AFE
:1028D000446000258D620468641E046000BFD34814
:1028E0000068002842D100BF4869D1E90245A560CF
:1028F000D1E9025465600C1D4568A54201D1CC6840
:10290000446000254D610468641E046000BF00BF80
:1029100091F82C400120A040C54C24682043C44CB1
:10292000206000BFCC6A04EB8404C24D05EB840434
:10293000606888608568CD600C1D85686C60846007
:10294000CC6A04EB8404BB4D05EB84054D61CC6A75
:1029500004EB8404B74D55F82440641CCD6A05EBA4
:102960008505B44E46F8254000BF11E000BFB24CCB
:102970006068C86185680D6201F1180485686C6043
:102980008460AD4D8D622C462468641C2C6000BFB1
:10299000A54CC86A2468E46AA04204D90122012037
:1029A000A64C206000E00022104670BD70B50246C3
:1029B0000B4643F000411160D06800BF1169D2E9B5
:1029C0000154AC60D2E901456C604C68944201D17D
:1029D00094684C60002414610C68641E0C6000BF95
:1029E00000BF4169D0E90245A560D0E902546560A5
:1029F000041D4D68A54201D1C4684C6000254561A5
:102A00000C68641E0C6000BF00BF90F82C400121D0
:102A1000A140874C24682143854C216000BFC46AD3
:102A200004EB8404834D05EB8404616881608D6848
:102A3000C560041D8D686C608C60C46A04EB8404FE
:102A40007C4D05EB84054561C46A04EB8404794D33
:102A500055F82440641CC56A05EB8505754E46F89B
:102A6000254000BF00BF704CC16A2468E46AA142DF
:102A700002D90121714C216070BD10B5044600F0EF
:102A800023FD6F48006820606E480068606000F0B9
:102A90002AFD10BD6A49096801606A4909684160F8
:102AA000704770B506460C4600F00EFD654802689A
:102AB0007068131A2068401C08B9002519E06049A5
:102AC00030680968884206D07068904203D80125B2
:102AD000002020600DE02068984207D92068C01AC5
:102AE00020603046FFF7D6FF002502E0002020607E
:102AF000012500F0F8FC284670BD01204F49086010
:102B000070474949086870474F49096809B9012069
:102B100005E04649096809B9022000E00020704735
:102B200041490968886940490968C96AC1F10501D4
:102B30003D4A1268916170472DE9F04104460F4605
:102B4000164600F0C1FC38480068443050F82400B4
:102B500080B90121344800684830015556B13046EB
:102B6000FFF7EEFA4FF0805038490860BFF34F8FFF
:102B7000BFF36F8F00F0B7FC00F0A6FC2A48006896
:102B8000443050F824506DB137B100212648006818
:102B9000443040F8241005E0681E23490968443198
:102BA00041F824000021204800684830015500F019
:102BB0009AFC2846BDE8F0812DE9F04704460F460F
:102BC00090461D46DDF8209000F07EFC1648006817
:102BD0004830005D02281AD013490968443101EBDE
:102BE00084000168B943016001210F480068483042
:102BF0000155B9F1000F0AD04846FFF7A1FA4FF08E
:102C0000805012490860BFF34F8FBFF36F8F00F001
:102C10006AFC00F059FCE5B103480068443050F804
:102C2000240015E070000020500000208C000020DF
:102C3000680000204C020020D80200207400002010
:102C400078000020640000206C00002004ED00E00B
:102C50002860FE4800684830005D022801D0002648
:102C600009E0FA490968443101EB8400016821EA6E
:102C70000801016001260021F44800684830015530
:102C800000F031FC3046BDE8F0872DE9F05F814669
:102C90000D4616461F46DDF828A04FF0010B4C46A6
:102CA00000F012FCBAF1000F05D004F1440050F816
:102CB0002500CAF8000004F1480010F80580022140
:102CC0004155052F29D2DFE807F027030D171C0017
:102CD00004F1440050F82500304304F1440141F868
:102CE00025001BE004F1440050F82500401C04F1CD
:102CF000440141F8250011E004F1440040F825604A
:102D00000CE0B8F1020F04D004F1440040F8256053
:102D100001E04FF0000B01E000E000BF00BFB8F1A0
:102D2000010F50D100BF6069D4E902128A60D4E972
:102D300002214A60211D42688A4201D1E168416056
:102D4000002262610168491E016000BF00BF94F863
:102D50002C1001208840BE4909680843BC4908601E
:102D600000BFE16A01EB8101BA4A02EB81014868C8
:102D7000A0608268E260211D826851608160E16A22
:102D800001EB8101B34A02EB81026261E16A01EB6E
:102D90008101B04A52F82110491CE26A02EB82021A
:102DA000AC4B43F8221000BF00BFA849E06A096895
:102DB000C96A884207D94FF08050A7490860BFF31D
:102DC0004F8FBFF36F8F00F08EFB5846BDE8F09F2A
:102DD0002DE9F04F05460C46DDE909674FF0010982
:102DE000294600BF4FF0BF0AEFF311808AF3118824
:102DF000BFF34F8FBFF36F8F00BF804626B101F145
:102E0000440050F82400306001F1480010F804C07C
:102E10004FF0020A00F804A0052B29D2DFE803F0E6
:102E200027030D171C0001F1440050F82400104343
:102E300001F1440A4AF824001BE001F1440050F873
:102E40002400401C01F1440A4AF8240011E001F179
:102E5000440040F824200CE0BCF1020F04D001F142
:102E6000440040F8242001E04FF0000901E000E0B8
:102E700000BF00BFBCF1010F7DD178480068002879
:102E800064D100BF4869D1E902ABCAF808B0D1E902
:102E900002BACAF804B001F1040AD0F804B0D3456C
:102EA00003D1D1F80CA0C0F804A04FF0000BC1F87A
:102EB00014B0D0F800A0AAF1010AC0F800A000BF29
:102EC00000BF91F82CA0012000FA0AF0DFF880A1E1
:102ED000DAF800A040EA0A00DFF874A1CAF800009E
:102EE00000BFD1F82CA00AEB8A0ADFF868B10BEB1F
:102EF0008A0ADAF804008860D0F808B0C1F80CB08B
:102F000001F1040AD0F808B0CBF804A0C0F808A07A
:102F1000D1F82CA00AEB8A0ADFF838B10BEB8A0B48
:102F2000C1F814B0D1F82CA00AEB8A0ADFF824B15A
:102F30005BF82AA00AF1010AD1F82CB00BEB8B0B3D
:102F4000DFF810E14EF82BA000BF1FE000BFDFF854
:102F500010A1DAF80400C861D0F808B0C1F820B0B8
:102F600001F1180AD0F808B0CBF804A0C0F808A006
:102F7000DFF8ECB000E01AE0C1F828B0DA46DAF881
:102F800000A00AF1010ACBF800A000BFDFF8BCA046
:102F9000C86ADAF800A0DAF82CA0504507D90FB1BA
:102FA000012038600120DFF8BCA0CAF8000000BF93
:102FB00088F3118800BF4846BDE8F08F2DE9F04145
:102FC00003461446184600BFBF27EFF3118287F36C
:102FD0001188BFF34F8FBFF36F8F00BF154600F10D
:102FE0004802565C02275754121F52F82120521CE7
:102FF00000F1440747F82120012E7DD1174A1268BD
:10300000002A60D100BF4269D0E9027CC7F808C03D
:10301000D0E902C7C7F804C0071DD2F804C0BC45F8
:1030200001D1C76857604FF0000CC0F814C0176892
:103030007F1E176000BF00BF90F82C700122BA40BD
:10304000034F3F683A43024F3A600DE050000020C2
:10305000680000204C02002004ED00E08C000020FD
:10306000D80200207400002000BFC76A07EB870762
:10307000DFF820C10CEB87077A688260D2F808C0BD
:10308000C0F80CC0071DD2F808C0CCF804709760D7
:10309000C76A07EB8707DFF8FCC00CEB870CC0F8AA
:1030A00014C0C76A07EB8707DFF8E8C05CF8277031
:1030B0007F1CD0F82CC00CEB8C0CDFF8D88048F8C3
:1030C0002C7000BF1AE000BF334F7A68C261D2F89B
:1030D00008C0C0F820C000F11807D2F808C0CCF82A
:1030E00004709760DFF8B0C0C0F828C067463F683A
:1030F0007F1CCCF8007000E00CE000BF274FC26AD4
:103100003F68FF6ABA4205D90CB101222260012250
:10311000234F3A6000BF85F3118800BFBDE8F081FE
:103120002DE9F04106460C4616B91C48006800E03F
:103130003046074600F0C8F907F14800005D022854
:1031400005D1002107F148000155012500E00025C7
:1031500000F0C9F92846BDE8F0812DE9F0410646A6
:103160000C46174616B90D48006800E03046054683
:1031700000F0AAF905F1440050F8248050F824002A
:10318000B84305F1440141F8240000F0ACF9404691
:10319000BDE8F0814C020020D80200205000002041
:1031A0007400002010B50146A34800E000680368E1
:1031B0008B42FBD30246436813448B4204D14368DD
:1031C0004C682344436001460A464B681344046834
:1031D000A34211D1994C03682468A34208D04B68DC
:1031E0000468646823444B6003681B680B6005E057
:1031F000924B1B680B6001E003680B60884200D0B3
:10320000016010BD30B54FF488438D4800F00704CD
:103210002CB1C01D20F00700894C041B1B1B02466B
:10322000854C22600024844D6C60D018083820F052
:103230000700824C20600024804D2D686C607F4D1B
:103240002D682C601146441A4C607C4C24680C603C
:103250007C4D4C682C607C4D4C682C6030BD2DE959
:10326000F04704464FF00009FEF7BDFF73480068C1
:1032700008B9FFF7C7FFDCB114F1090F01D901202C
:1032800000E0002098B9083404F0070080B104F091
:103290000700C0F10808C8F1FF30A04201D20120A8
:1032A00000E0002008B9444402E0002400E00024CB
:1032B000012000EBE470002841D0002C3FD0624890
:1032C000006884423BD85C4E3046056801E02E46DB
:1032D0002D686868A04202D228680028F7D15748B4
:1032E000006885422BD0306800F1080928683060FA
:1032F0006868001B102807D92F196868001B7860C0
:103300006C603846FFF74EFF4F4968680968081A35
:103310004D490860084600684A490968884203D256
:103320004948006847490860686840F000406860A4
:103330000020286045480068401C44490860FEF7AA
:103340005CFE4846BDE8F08770B506463546E6B1F6
:10335000083D2C466068C00FB8B12068A8B9606805
:1033600020F000406060FEF73EFF37496068096862
:103370000844354908602046FFF714FF34480068C8
:10338000401C33490860FEF738FE70BD2E480068C7
:1033900070472C4800687047704770B504460D466A
:1033A000002634B1701EB0FBF4F0A84201D2012017
:1033B00000E0002050B904FB05F0FFF750FF06467F
:1033C00026B104FB05F1304601F0FBFC304670BD30
:1033D0002DE9F04104464FF000080026771EFEF765
:1033E00002FF154805687DB10AE008F10108686828
:1033F000B04200D96E686868B84200D26F682D6824
:103400000E4800688542F0D1FEF7F7FD6660A760C0
:10341000C4F80C8000F058F80B48006820600B4896
:10342000006860610A480068A06106480068206181
:1034300000F059F8BDE8F0819000002098000020CD
:1034400014030020A00000209C000020A400002005
:10345000A800002000BFBF2080F31188BFF34F8F6A
:10346000BFF36F8F00BF00BFFEE7001F4FF08073F8
:103470000360001F21F001030360001F2D4B036058
:10348000143802602038704700204FF0E0210861B6
:1034900088612948486107200861704710B52748AE
:1034A000006840F47F00254908600846006840F045
:1034B0007F400860FFF7E8FF002021490860FCF723
:1034C00053FE002010BD704700BFBF2080F311885D
:1034D000BFF34F8FBFF36F8F00BF19480068401CC8
:1034E00017490860704716480068401E1449086074
:1034F0000846006820B9002080F3118800BF00BF93
:10350000704710B500BFBF2080F31188BFF34F8F05
:10351000BFF36F8F00BFFEF78DFC20B14FF08050DE
:1035200006491C39086000BF002080F3118800BFE5
:1035300010BD0000553400083F19010020ED00E0E7
:10354000AC00002010B500F01DFD10BD614890F8E2
:10355000020108B9012070475E4890F8020108B1E5
:103560000020F8E700BFF6E72DE9F04104460D46DC
:10357000C826204601F058FC87B23946204600F0A4
:10358000EBFC16E0FFF7E2FF70B92946514801F065
:103590002FFC48B1FFF7D6FF2A4621464EA001F086
:1035A0002DFD0020BDE8F081FFF7CCFF0A20FDF7DC
:1035B00020FB301EA6F10101CEB2E3D10120F1E7DC
:1035C00030B589B005460C46FFF7BCFF224647A13F
:1035D00001A801F023FD49A101A8FFF7C5FF18B913
:1035E0002146284600F0B8FC09B030BD70B505464C
:1035F000002400BFFFF7AAFF80B941A1354801F0C0
:10360000F7FB044654B13A21204601F003FC04467E
:1036100014B1641C204670BD0020FCE70520FDF7B6
:10362000E8FA281EA5F101018DB2E3D100BFF2E74F
:1036300008B501211020FDF7D9FF10208DF80300F7
:10364000ADF8000003208DF8020069462E48FDF712
:1036500011FD002210212C48FDF7BDFDFA20FDF7D9
:10366000C8FA012210212848FDF7B5FD4FF4FA7081
:10367000FDF7BFFAFFF766FF00BF24A124A0FFF704
:1036800073FF0028F9D14FF4FA70FDF7B2FA00BFCA
:103690001EA121A0FFF768FF0028F9D14FF4FA70AE
:1036A000FDF7A7FA00BF20A121A0FFF75DFF0028CA
:1036B000F9D14FF4FA70FDF79CFA00BF24A126A0BF
:1036C000FFF752FF0028F9D14FF4FA70FDF791FA95
:1036D00008BD000014470020636D643A2573202064
:1036E0007265733A25730D0A0000000041542B43A4
:1036F000495053454E443D25640D0A003E000000EC
:103700004950442C00000000001001404F4B0000C5
:1037100041540D0A0000000041542B43574D4F44C3
:10372000453D310D0A000000474F5420495000002C
:1037300041542B43574A41503D22313233343522D4
:103740002C223132333435363738220D0A0000004E
:10375000434F4E4E4543540041542B43495053541C
:103760004152543D22544350222C223138332E32C0
:1037700033302E34302E3339222C363030320D0A8D
:103780000000000030B58BB0002007900890099031
:103790000A900125D1A3D4A2D4A1D6A001F02EFC79
:1037A00007A8002102910391CDE9041000912B029A
:1037B000CAA20191CCA1CDA000F0A1FC00283BD170
:1037C000089A91B20798FFF7FBFEFA20FFF70EFF69
:1037D0000446002C2CD0204600F05CFC022827D1A7
:1037E000204600F0F1FD06281DD2DFE800F00308B6
:1037F0000C101418CBA001F001FC002517E0CEA09E
:1038000001F0FCFB13E0D3A001F0F8FB0FE0DAA01D
:1038100001F0F4FB0BE0E0A001F0F0FB07E0E7A013
:1038200001F0ECFB03E0F0A001F0E8FB00BF00BFFB
:1038300007A800F0E7FB02E0F2A001F0DFFB28465A
:103840000BB030BD2DE9F04186B0804600200190DC
:103850000090694601A8FDF730F99DF80410F2A028
:1038600001F0CCFB9DF80010F2A001F0C7FBFCF7C3
:10387000B6FFC4B2FCF7A6FFC5B2FCF7BDFFC6B2E7
:10388000FCF7C6FFC7B22146EDA001F0B7FB294601
:10389000F0A001F0B3FB3146F3A001F0AFFB3946D5
:1038A000F6A001F0ABFB002002900390049005907D
:1038B000F7A1404601F090FA002002900390049096
:1038C00005902246F3A102A801F0A8FB02A94046F8
:1038D00001F082FA002002900390049005902A469D
:1038E000EFA102A801F09AFB02A9404601F074FA88
:1038F000002002900390049005903246EBA102A8AC
:1039000001F08CFB02A9404601F066FA002002900B
:103910000390049005903A46E7A102A801F07EFBCF
:1039200002A9404601F058FA00200290039004904A
:1039300005909DF80420E3A102A801F06FFB02A905
:10394000404601F049FA002002900390049005904F
:103950009DF80020DEA102A801F060FB02A940460C
:1039600001F03AFADDA1404601F036FA404601F096
:103970005BFAC0B206B0BDE8F08130B5A5B000205A
:10398000219022902390249000240025D4A001F0BF
:1039900035FB802101A801F014FA01A8FFF752FFBE
:1039A0000446002C24D021A80323002221460090A5
:1039B0004AA000F0EFFDC0B908E001A8415D229ADD
:1039C000501C229021988154681C05B2A542F4DB5A
:1039D000229A91B22198FFF7F3FDC9A0229901F034
:1039E0000DFB21A800F00EFB02E0C9A001F006FBD0
:1039F00025B030BD2DE9F0418AB080460020069008
:103A000007900890099005900490039000260027E5
:103A100000250024404600F03DFB0646042E22D03F
:103A20000F2E28D103AB05AA04A9404600F03EFEA4
:103A30000746BFB9BDF80C30BDA0DDE9041201F0A6
:103A4000DDFA06AADDE9040100F076FE50B9C1A056
:103A500001F0D4FA079A91B20698FFF7B1FD06A8D3
:103A600000F0D0FA0AE0404601F0CFF810B9BFA04C
:103A700001F0C4FA02E04FF0FF3700BF00BFFFF7CC
:103A800061FD781C10B90AB0BDE8F0813A210598B3
:103A900001F0C0F90546002D1DD0781C00281AD071
:103AA0006D1C05E015F8012B2046641C0DF8002064
:103AB0002878302802DB28783928F3DD684601F0C1
:103AC000CEF90446B1A1059801F092F920B124B9CC
:103AD0000120B049086096E164E15DE1373933398E
:103AE0003837383733000000333231003436303461
:103AF000303200004F6E654E65745F4465764C69E8
:103B00006E6B0D0A50524F49443A2025732C0941DF
:103B10005549463A2025732C0944455649443A25CF
:103B2000730D0A00546970733A09C1ACBDD3B3C9AF
:103B3000B9A60D0A000000005741524E3A09C1AC27
:103B4000BDD3CAA7B0DCA3BAD0ADD2E9B4EDCEF3F1
:103B50000D0A00005741524E3A09C1ACBDD3CAA765
:103B6000B0DCA3BAB7C7B7A8B5C4636C69656E7497
:103B700069640D0A000000005741524E3A09C1AC79
:103B8000BDD3CAA7B0DCA3BAB7FECEF1C6F7CAA7A9
:103B9000B0DC0D0A000000005741524E3A09C1AC9A
:103BA000BDD3CAA7B0DCA3BAD3C3BBA7C3FBBBF2C8
:103BB000C3DCC2EBB4EDCEF30D0A00005741524E08
:103BC0003A09C1ACBDD3CAA7B0DCA3BAB7C7B7A87E
:103BD000C1B4BDD328B1C8C8E7746F6B656EB7C7F1
:103BE000B7A8290D0A0000004552523A09C1ACBDE0
:103BF000D3CAA7B0DCA3BACEB4D6AAB4EDCEF30D27
:103C00000A0000005741524E3A094D5154545F503A
:103C100061636B6574436F6E6E65637420466169A2
:103C20006C65640D0A00000074656D703A25640DC2
:103C30000A00000068756D693A25640D0A000000ED
:103C40004C4544315F5374617475733A25640D0AB1
:103C5000000000004C4544305F5374617475733A42
:103C600025640D0A0000000046414E305F53746128
:103C70007475733A25640D0A0000000046414E3108
:103C80005F5374617475733A25640D0A0000000077
:103C90007B000000224C454431223A25642C000070
:103CA000224C454430223A25642C00002246414EE5
:103CB00030223A25642C00002246414E31223A251A
:103CC000642C00002274656D70223A25642C00007B
:103CD0002268756D69223A25640000007D000000AD
:103CE000546970733A094F6E654E65745F53656E23
:103CF00064446174612D4D5154540D0A000000005C
:103D000053656E642025642042797465730D0A0042
:103D10005741524E3A094D5154545F4E65774275A2
:103D200066666572204661696C65640D0A00000074
:103D3000636D6469643A2025732C207265713A20A2
:103D400025732C207265715F6C656E3A2025640DB9
:103D50000A000000546970733A0953656E64204389
:103D60006D64526573700D0A000000005469707331
:103D70003A094D515454205075626C697368205350
:103D8000656E64204F4B0D0A000000006C656431C5
:103D90000000000088812242012C34D100202049FB
:103DA000086030E01FA1059801F022F850B11CB95D
:103DB00001201E49086026E0012C24D100201B4967
:103DC000086020E01AA1059801F012F850B11CB962
:103DD00000201949086016E0012C14D10120164971
:103DE000086010E015A1059801F002F858B124B957
:103DF000002011491039086005E0012C03D1012091
:103E00000D49103908600F2E01D0032E05D10498FA
:103E100001F00EFA059801F00BFA00BF33E600003E
:103E2000888122426C65643000000000A0012142BC
:103E300066616E3000000000A481214266616E312F
:103E40000000000000B587B001218804FDF7DBFB0E
:103E500001210820FDF7CAFB4FF48060ADF818007F
:103E600003208DF81A0018208DF81B0006A94C4875
:103E7000FDF700F94FF40060ADF8180004208DF84C
:103E80001B0006A94648FDF7F5F827208DF8040029
:103E900003208DF805008DF8060001208DF807003D
:103EA00001A8FDF71EF84FF4E13002900020ADF8B4
:103EB0000C00ADF80E00ADF81000ADF814000C20A9
:103EC000ADF8120002A93748FDF737FC012240F295
:103ED00025513448FDF7C9FC012240F22441314804
:103EE000FDF7C3FC01212F48FDF7B3FC07B000BD6F
:103EF00010B500202C4981F8020140F225512948D3
:103F0000FDF798FDC0B140F225512648FDF7BCFDF4
:103F10002448FDF70FFDC4B22348B0F80001FF2884
:103F20000ADC2148B0F80011B0F80001401C1E4A1C
:103F3000A2F800011046445440F224411948FDF70C
:103F400079FD40B1174800881648001D00880120FF
:103F5000154981F8020110BD70B504460D460026D2
:103F60000DE03046721C96B2215C0E48FDF7DEFC77
:103F700000BF80210B48FDF747FD0028F9D0AE4275
:103F8000EFDB70BD10B500200749A1F8000181F8F2
:103F900002014FF48071044800F013FF10BD0000CF
:103FA000000C0140004800401447002070B5044652
:103FB0000E460025206898B901202073304601F094
:103FC0005FF920602068E0B100206060A66003E037
:103FD0000020216848556D1CA068A842F8D810E060
:103FE0000220207303E00020216848556D1CA06862
:103FF000A842F8D800206060A068B04201D200203A
:10400000206070BD10B50446207B012802D12068D5
:1040100001F00EF9002020606060A060207310BDE8
:104020000246002301230DE002F07F000870D20950
:104030002AB1087840F080000870491C01E0184659
:1040400070475B1C042BEFDD4FF0FF30F8E7F0B555
:1040500004460D462646012300201060002114E08E
:10406000775C07F07F07106807FB03001060705C47
:1040700000F0800008B9481CF0BDDB01B3F5001F5B
:1040800002D36FF00100F7E7491CA942E8DB4FF0CB
:10409000FF30F1E7F8B50446FF2720780511012D20
:1040A00001DB0E2D01DD3846F8BD032D24D10020A3
:1040B00000906A460421601CFFF7C9FF2044461C9B
:1040C0000098022803D3207800F0010008B1FF20F7
:1040D000EAE77078317840EA0120801C0099884234
:1040E00001D9FF20E0E7F8A1B01C00F081FE08B183
:1040F0000F2700E0032700E02F463846D4E72DE9DC
:10410000FF4F83B082468B469146159C00250020C8
:1041100002900F270190484600F086FE0FFA80F8C3
:10412000B9F1000F03D1012007B0BDE8F08F08F10D
:104130000200384487B2109808B145F00205129881
:1041400078B145F00405129800F06EFEC0B20290FE
:10415000139800F069FE01460298001D0844384497
:1041600087B2119820B1012804D0022808D104E0B8
:1041700000BF07E045F00C0504E045F0140501E040
:104180000220D1E700BF149808B145F02405BAF128
:10419000000F02D0BBF1000F01D10320C4E745F0AE
:1041A000C005504600F040FE0646584600F03CFE72
:1041B0003044001D384487B239462046FFF7F6FEEA
:1041C000206808B90420AFE73946206800F0F9FDFF
:1041D00010216268501C606020688154D4E900237B
:1041E000D118781FFFF71CFF00B20190019800283A
:1041F00004DA2046FFF706FF052095E7616801987D
:104200000844606000216268501C6060206881542E
:1042100004216268501C6060206881544D216268EE
:10422000501C60602068815451216268501C60609D
:104230002068815454216268501C60602068815459
:104240006268501C60602068815404216268501CC0
:104250006060206881546168481C60602068455433
:104260000698010A6268501C6060206881540698B4
:10427000C1B26268501C606020688154C8F3072195
:104280006268501C6060206881546268501C6060E5
:10429000206800F80280D4E9001288184246494696
:1042A00000F0C9FD60684044606005F00400B8B3E8
:1042B0000026139808B986A01390129800F0B4FD58
:1042C00086B2310A6268501C60602068815462685E
:1042D000501C606020688654D4E900128818324669
:1042E000129900F0A8FD606830446060139800F0F7
:1042F0009BFD86B2310A6268501C60602068815460
:104300006268501C606020688654D4E900128818E6
:104310003246139900F08FFD60683044606000BF42
:1043200005F08000C8B1504600F07EFD86B2310A2B
:104330006268501C6060206881546268501C606034
:1043400020688654D4E9001288183246514600F09D
:1043500072FD60683044606000BF05F04000C8B185
:10436000584600F061FD86B2310A6268501C6060F8
:10437000206881546268501C606020688654D4E9CB
:10438000001288183246594600F055FD60683044E6
:10439000606000BF0020C7E610B504460221204639
:1043A000FFF704FE206808B9012010BDE021626813
:1043B000501C60602068815400216268501C60605D
:1043C000206881540020F0E701464878022801D097
:1043D00001207047887810B18878012801D1C87809
:1043E000F7E7FF20F5E72DE9FF4F83B083469046BE
:1043F0009946139C0026002500200290019000277A
:10440000BBF1000F03D1012007B0BDE8F08F0025FC
:104410000AE00498405D232803D00498405D2B28CF
:1044200001D10220F0E76D1C0498405D0028F0D116
:1044300047F03007119808B147F0010705EB090074
:10444000861C109820B1012804D002280AD105E06A
:1044500000BF09E047F00207B61C05E047F004077B
:10446000B61C01E00320CFE700BF98F80000022847
:1044700022D14FF0000A00BF50460AF1010A18F895
:1044800000007D28F8D1AAF1030A0AF10700029082
:104490000298A9EB000AF01CA0EB0A012046FFF7E6
:1044A00085FD206808B90420AEE7F21CA2EB0A01E2
:1044B000206800F086FC11E0F11C2046FFF776FD35
:1044C000206838B904209FE72463726571000000FA
:1044D00000000000F11C206800F073FC6168481CBB
:1044E000606020684754D4E9000281183046FFF725
:1044F00097FD01900198002804DA2046FFF782FD1D
:10450000052081E76168019808446060C5F30721D0
:104510006268501C6060206881546268501C606052
:1045200020688554D4E9001288182A46049900F0BE
:1045300082FC606828446060109860B14FEA1B21DB
:104540006268501C6060206881546268501C606022
:10455000206800F802B0B8F1000F19D098F80000F8
:1045600002280BD1D4E9001288184146029A00F0C3
:104570000FFC616802980844606009E0D4E9001209
:1045800088184A46414600F003FC60684844606071
:10459000002039E72DE9FF4107460D4690461E46AB
:1045A0000A9C01200021CDE90001EB1C0A46FAA17A
:1045B000CDE902040A20FFF716FF88B96168481C9C
:1045C000606020684654C5F307216268501C606033
:1045D000206881546268501C60602068855403E044
:1045E000012004B0BDE8F0810020FAE72DE9F04F8A
:1045F00085B080460D469146012004900027002694
:1046000000244FF0000A404600F00EFC00F10D0BB4
:10461000584600F035FE07461FB9049805B0BDE8BE
:10462000F08F4246DDA1384600F0F8FC384600F035
:10463000FBFBC6B2F01D00EB050AAAEB050000F07B
:104640001FFE044624B9384600F0F2FD0498E5E761
:104650000220207000206070A67032463946E01CAF
:1046600000F096FB290EF01C2154C5F30741301DC4
:104670002154C5F30721701D2154B01D255401207C
:104680000021CDE9000153462246C3A1CDE902092C
:104690000A20FFF7A8FE08B900200490384600F071
:1046A000C7FD204600F0C4FD0498B7E72DE9F843A4
:1046B00080460C4615461E462F2108F1060000F0E4
:1046C000A9FB07460020009017B90120BDE8F88338
:1046D0007F1C6A46042108F10100FFF7B8FC252081
:1046E00000F0CEFD2060206808B90220EEE7252109
:1046F000206800F066FB24223946206800F048FB61
:10470000243700982C3830803188481C00F0B8FDE0
:104710002860286820B9206800F08AFD0320D5E7CA
:104720003288511C286800F04CFB328839462868D2
:1047300000F02EFB0020C9E72DE9FF5F07460D467C
:104740009046384600F070FB86B2284600F06CFBBD
:104750001FFA80FA4FF00009B01D00F091FD0446E9
:104760001CB9012004B0BDE8F09FB11D204600F047
:1047700028FB8EA0016821608088A08032463946DF
:10478000204600F058FB284600F04EFB83460120EF
:10479000002100915B462A46CDE90208019121469D
:1047A0000A20FFF720FE10B94FF0000901E04FF09A
:1047B0000109204600F03CFD4846D3E72DE9FF5FA4
:1047C0008046174699460E9C0026B246B346002501
:1047D000B8F1000F03D1012004B0BDE8F09F0BE059
:1047E00057F8250008B90220F6E757F8250000F031
:1047F0001BFB0644681CC5B24D45F1DB09EB4900C3
:10480000801C00EB060A0AF105012046FFF7CEFBEB
:10481000206808B90320DFE782216268501C6060CD
:1048200020688154D4E9000281185046FFF7F8FB54
:104830000FFA80FBBBF1000F04DA2046FFF7E2FB22
:104840000420C9E76068584460604FEA1821626834
:10485000501C6060206881546268501C6060206851
:1048600000F80280002524E057F8250000F0DCFA6B
:104870000646C6F307216268501C606020688154B8
:104880006268501C606020688654D4E90023D01808
:1048900057F82510324600F0CEFA60683044606068
:1048A0000198C1B26268501C606020688154681C25
:1048B000C5B24D45D8DB00208EE70146FF208A783F
:1048C000A2B9CA78142A11D10A7932B1012A05D0C5
:1048D000022A04D0802A06D103E000BF00BF0020D6
:1048E00003E0012001E0022000BF00BF70472DE976
:1048F000F05F80460F4691461C460026B246B346FE
:104900000025B8F1000F02D10120BDE8F09F0BE0B7
:1049100057F8250008B90220F7E757F8250000F0FE
:1049200083FA0644681CC5B24D45F1DB022000EB5A
:10493000490000EB060A0AF105012046FFF736FBA5
:10494000206808B90320E0E7A2216268501C60607B
:1049500020688154D4E9000281185046FFF760FBBB
:104960000FFA80FBBBF1000F04DA2046FFF74AFB89
:104970000420CAE76068584460604FEA1821626802
:10498000501C6060206881546268501C6060206820
:1049900000F8028000252BE0246470007B22647301
:1049A0005F6964223A222573227D000024637273BA
:1049B000702F000057F8250000F036FA0646C6F3BF
:1049C00007216268501C6060206881546268501C36
:1049D000606020688654D4E90023D01857F8251069
:1049E000324600F028FA606830446060681CC5B246
:1049F0004D45DFDB002088E7014601208A781AB99F
:104A0000CA781E2A00D1002070472DE9FC5F81463C
:104A10000D4614461E46DDE90C8B99F8000000F0A7
:104A20000F0A002001900AF008000090CAF341002C
:104A30008BF8000001AA042109F10100FFF707FB30
:104A40004844471C0198022802D30AF0010010B123
:104A5000FF20BDE8FC9F7878397840EA012020806B
:104A60002088801C0199884201D9FF20F1E7AFF22C
:104A7000A851B81C00F0BCF908B10F20E9E79BF879
:104A8000000020B101283DD0022877D13BE00098FA
:104A900008B1FF20DDE72188481C00F0F1FB286009
:104AA000286808B9FF20D4E72288511C286800F044
:104AB00088F92288B91C286800F06AF90198801EDC
:104AC0002188401AA8F80000B8F80010481C00F02F
:104AD000D7FB3060306820B9286800F0A9FBFF20C0
:104AE000B7E7B8F80020511C306800F06AF9B8F850
:104AF0000020B4F800C0BB1C0CEB0301306800F0D0
:104B000047F94FE000BF2088801C0199884201D9F5
:104B1000FF209EE72088C01C395C2088801C385C00
:104B200041EA00210E9801800E9808B9FF2090E715
:104B30002188481C00F0A4FB2860286808B9FF20E1
:104B400087E72288511C286800F03BF92288B91CAD
:104B5000286800F01DF90198001F2188401AA8F864
:104B60000000B8F80010481C00F08AFB3060306884
:104B700028B9286800F05CFBFF206AE710E0B8F86D
:104B80000020511C306800F01CF9B8F80020B4F87F
:104B900000C03B1D0CEB0301306800F0F9F801E0A8
:104BA000FF2056E700BF2B21284600F033F920B93B
:104BB0002321284600F02EF908B1FF2049E7002004
:104BC00047E770B505460C4604212046FFF7EEF98D
:104BD000206808B9012070BD40216268501C6060E7
:104BE0002068815402216268501C606020688154F2
:104BF00029126268501C6060206881546268501CF1
:104C00006060206885540020E5E701464878022866
:104C100001D001207047887820B9C8780A2801D1CE
:104C20000020F7E70120F5E770B505460C460421A2
:104C30002046FFF7BBF9206808B9012070BD50215C
:104C40006268501C60602068815402216268501CB8
:104C500060602068815429126268501C606020687E
:104C600081546268501C6060206885540020E5E72C
:104C700001464878022801D001207047887820B981
:104C8000C8780A2801D10020F7E70120F5E770B5C0
:104C900005460C4604212046FFF788F9206808B92C
:104CA000012070BD62216268501C606020688154E0
:104CB00002216268501C6060206881542912626879
:104CC000501C6060206881546268501C60602068DD
:104CD00085540020E5E702465078022801D00120E3
:104CE00070479078B0EB112F05D1D078CBB29842B5
:104CF00001D10020F4E70120F2E770B505460C462B
:104D000004212046FFF752F9206808B9012070BD40
:104D100070216268501C60602068815402216268C2
:104D2000501C60602068815429126268501C6060C9
:104D3000206881546268501C60602068855400209F
:104D4000E5E701464878022801D0012070478878BD
:104D500020B9C8780A2801D10020F7E70120F5E73B
:104D600010B5044602212046FFF720F9206808B953
:104D7000012010BDC0216268501C60602068815411
:104D800000216268501C6060206881540020F0E7B8
:104D900040EA01039B0703D009E008C9121F08C0BD
:104DA000042AFAD203E011F8013B00F8013B521E3D
:104DB000F9D27047D2B201E000F8012B491EFBD2B4
:104DC00070470022F6E710B513460A460446194616
:104DD000FFF7F0FF204610BD421E12F8013F002BE6
:104DE000FBD111F8013B02F8013B002BF9D17047D0
:104DF00030B505462A460B4612F8010B13F8014B55
:104E000008B1A042F8D01CB1002802D06D1CF1E717
:104E1000284630BDCAB2401E10F8011F8A4202D097
:104E20000029F9D100207047421C10F8011B00290D
:104E3000FBD1801A704710B5044600E0401C03788F
:104E4000002BFBD100E0401C521E04D311F8013BA3
:104E50000370002BF7D100210170204610BD70B502
:104E6000064600F0EFF8046805460A2200213046A5
:104E700000F018F82C6070BD30B50B4601460020DC
:104E80002022012409E021FA02F59D4205D303FA0C
:104E900002F5491B04FA02F52844151EA2F101028D
:104EA000F1DC30BD2DE9F04791460F4680460446BF
:104EB000002614F8015B2DB100F03EF80068405D5B
:104EC000C007F6D12B2D02D02D2D18D0641E4A46D6
:104ED0003946204600F034F827B13968A14201D1A3
:104EE000C7F8008071054FF002040BD5404200283E
:104EF00003DD00F0A7F80460A007BDE8F08746F4E2
:104F00008066E4E70028F8DA00F09CF804606FF0AF
:104F10000040F2E7064C074D06E0E06840F0010370
:104F200094E8070098471034AC42F6D3FBF704F935
:104F300074530008945300080048704770530008E9
:104F40002DE9F05F82460078002715468B460AF16E
:104F50000104B946302801D09DB113E014F8010BCB
:104F60000127782803D0582801D045B10AE00DB1B7
:104F7000102D07D10027102514F8010B02E0082599
:104F800000E00A250026B0460EE005FB080005FB00
:104F900006F1012701EB10461FFA80F8B6F5803FB5
:104FA00000D3B94614F8010B294600F018F8002880
:104FB000EBDABBF1000F05D00FB1641E00E05446E0
:104FC000CBF80040B9F1000F06D000F03BF8022109
:104FD0000160C81EBDE8F09F48EA0640FAE73A289B
:104FE00000D2303820F02002412A01D3A2F137004C
:104FF000884201D34FF0FF30704700000FB4054BDB
:1050000010B503A9044A029800F030F810BC5DF80E
:1050100014FB00005F0C00082C0000200FB4084BAC
:1050200010B504A902AA039800F020F8044602A9CA
:10503000002000F0F7F8204610BC5DF814FB0000DB
:105040002552000800487047B800002002E008C858
:10505000121F08C1002AFAD170477047002001E0F2
:1050600001C1121F002AFBD1704700002DE9FF4F3C
:105070008BB09A460F460546002606E025280BD041
:1050800052460D9990476D1C761C28780028F5D162
:105090000FB03046BDE8F08F0024A04601226049E1
:1050A00000E0044315F8013F203B02FA03F00842F8
:1050B000F7D128782E2817D115F8010F44F00404F1
:1050C0002A280ED06FF02F022878A0F1300109298C
:1050D0000AD808EB880102EB410100EB01086D1CC6
:1050E000F2E757F8048B6D1C287869283ED006DC5F
:1050F0000028CDD063280BD0642804D136E0732873
:1051000010D075284BD052460D999047761C85E0FB
:1051100017F8040B8DF8000000208DF80100E94617
:10512000012003E057F8049B4FF0FF3061074FF078
:10513000000401D40AE0641C44450DDA8442FADB21
:1051400019F804100029F6D106E0641C8442FCDB47
:1051500019F804100029F8D1264404E019F8010BCD
:1051600052460D999047641EF8D257E001CF4FF098
:105170000A0B002802DA40422D2102E0210504D565
:105180002B218DF82410012103E0E10705D0202117
:10519000F7E70DF1200908910CE00021F9E701CFB4
:1051A0004FF00A0BF9E75946FFF766FE01F13002AE
:1051B00009F8012D0028F6D1ADEB090000F1200B14
:1051C000600701D44FF00108D84502DDA8EB0B00C1
:1051D00000E000208046002406E009A85246005D59
:1051E0000D999047641C761C08988442F5DB04E016
:1051F000302052460D999047761CB8F10001A8F175
:105200000108F5DC05E019F8010B52460D999047AD
:10521000761CBBF10001ABF1010BF4DC6D1C34E733
:10522000092801000A68531C0B60107070470000C9
:1052300010B5002821D0114B0022001F196803E08F
:10524000814203D80A4649680029F9D152B113684E
:10525000841A9C4204D1006818441060104602E091
:10526000506000E0186039B102680B1A934203D114
:105270000B681A4402604968416010BDB00000200C
:10528000F0B50B30154D20F007010024144A0FE053
:1052900003688B420BD38B4205D95E1A43184768CB
:1052A000C3E9006700E04368136002C004E0021D28
:1052B00010680028ECD12046002802D1286808B1E7
:1052C0000020F0BD064A07481060074A121A22F073
:1052D0000702C0E9002401202860D7E7B4000020BD
:1052E000B00000201C480020184A00200040404028
:1052F00040404040404041414141414040404040A9
:105300004040404040404040404040404005020254
:105310000202020202020202020202020220202013
:10532000202020202020200202020202020290906F
:10533000909090901010101010101010101010106D
:1053400010101010101010100202020202028888C1
:1053500088888888080808080808080808080808CD
:1053600008080808080808080202020240000000B5
:10537000ED5200089453000800000020BC0000001B
:105380004C50000850540008BC0000205C4D000048
:105390005C50000800000000000000000000000059
:1053A0000000000000A24A0400000000000000000D
:1053B00001020304060708090100000000000000C4
:1053C00000000000000000000000000000000000DD
:1053D000000000000102030401020304060708099B
:1053E00002040608000000000000000000000000A9
:1053F00000000000000000000000000000000000AD
:10540000000000000000000000000000000000009C
:105410000000000000000000000000000400000088
:10542000000000000000000000000000000000007C
:10543000000000000000000000000000000000006C
:10544000AAAAAAAA000000000000000000000000B4
:0400000508000131BD
:00000001FF
